{
  "_format": "hh-sol-artifact-1",
  "contractName": "NFTCollection",
  "sourceName": "contracts/NFTCollection.sol",
  "abi": [
    {
      "inputs": [
        {
          "internalType": "string",
          "name": "_name",
          "type": "string"
        },
        {
          "internalType": "string",
          "name": "_symbol",
          "type": "string"
        }
      ],
      "stateMutability": "nonpayable",
      "type": "constructor"
    },
    {
      "anonymous": false,
      "inputs": [
        {
          "indexed": true,
          "internalType": "address",
          "name": "owner",
          "type": "address"
        },
        {
          "indexed": true,
          "internalType": "address",
          "name": "approved",
          "type": "address"
        },
        {
          "indexed": true,
          "internalType": "uint256",
          "name": "tokenId",
          "type": "uint256"
        }
      ],
      "name": "Approval",
      "type": "event"
    },
    {
      "anonymous": false,
      "inputs": [
        {
          "indexed": true,
          "internalType": "address",
          "name": "owner",
          "type": "address"
        },
        {
          "indexed": true,
          "internalType": "address",
          "name": "operator",
          "type": "address"
        },
        {
          "indexed": false,
          "internalType": "bool",
          "name": "approved",
          "type": "bool"
        }
      ],
      "name": "ApprovalForAll",
      "type": "event"
    },
    {
      "anonymous": false,
      "inputs": [
        {
          "components": [
            {
              "internalType": "uint256",
              "name": "id",
              "type": "uint256"
            },
            {
              "internalType": "address",
              "name": "owner",
              "type": "address"
            },
            {
              "internalType": "string",
              "name": "uri",
              "type": "string"
            }
          ],
          "indexed": false,
          "internalType": "struct NFTCollection.TokenItem",
          "name": "tokenData",
          "type": "tuple"
        }
      ],
      "name": "Minted",
      "type": "event"
    },
    {
      "anonymous": false,
      "inputs": [
        {
          "indexed": true,
          "internalType": "address",
          "name": "previousOwner",
          "type": "address"
        },
        {
          "indexed": true,
          "internalType": "address",
          "name": "newOwner",
          "type": "address"
        }
      ],
      "name": "OwnershipTransferred",
      "type": "event"
    },
    {
      "anonymous": false,
      "inputs": [
        {
          "indexed": true,
          "internalType": "address",
          "name": "from",
          "type": "address"
        },
        {
          "indexed": true,
          "internalType": "address",
          "name": "to",
          "type": "address"
        },
        {
          "indexed": true,
          "internalType": "uint256",
          "name": "tokenId",
          "type": "uint256"
        }
      ],
      "name": "Transfer",
      "type": "event"
    },
    {
      "inputs": [],
      "name": "MAX_SUPPLY",
      "outputs": [
        {
          "internalType": "uint8",
          "name": "",
          "type": "uint8"
        }
      ],
      "stateMutability": "view",
      "type": "function"
    },
    {
      "inputs": [
        {
          "internalType": "address",
          "name": "to",
          "type": "address"
        },
        {
          "internalType": "uint256",
          "name": "tokenId",
          "type": "uint256"
        }
      ],
      "name": "approve",
      "outputs": [],
      "stateMutability": "nonpayable",
      "type": "function"
    },
    {
      "inputs": [
        {
          "internalType": "address",
          "name": "owner",
          "type": "address"
        }
      ],
      "name": "balanceOf",
      "outputs": [
        {
          "internalType": "uint256",
          "name": "",
          "type": "uint256"
        }
      ],
      "stateMutability": "view",
      "type": "function"
    },
    {
      "inputs": [],
      "name": "getAllTokenData",
      "outputs": [
        {
          "components": [
            {
              "internalType": "uint256",
              "name": "id",
              "type": "uint256"
            },
            {
              "internalType": "address",
              "name": "owner",
              "type": "address"
            },
            {
              "internalType": "string",
              "name": "uri",
              "type": "string"
            }
          ],
          "internalType": "struct NFTCollection.TokenItem[]",
          "name": "",
          "type": "tuple[]"
        }
      ],
      "stateMutability": "view",
      "type": "function"
    },
    {
      "inputs": [
        {
          "internalType": "uint256",
          "name": "tokenId",
          "type": "uint256"
        }
      ],
      "name": "getApproved",
      "outputs": [
        {
          "internalType": "address",
          "name": "",
          "type": "address"
        }
      ],
      "stateMutability": "view",
      "type": "function"
    },
    {
      "inputs": [
        {
          "internalType": "address",
          "name": "owner",
          "type": "address"
        },
        {
          "internalType": "address",
          "name": "operator",
          "type": "address"
        }
      ],
      "name": "isApprovedForAll",
      "outputs": [
        {
          "internalType": "bool",
          "name": "",
          "type": "bool"
        }
      ],
      "stateMutability": "view",
      "type": "function"
    },
    {
      "inputs": [],
      "name": "name",
      "outputs": [
        {
          "internalType": "string",
          "name": "",
          "type": "string"
        }
      ],
      "stateMutability": "view",
      "type": "function"
    },
    {
      "inputs": [],
      "name": "owner",
      "outputs": [
        {
          "internalType": "address",
          "name": "",
          "type": "address"
        }
      ],
      "stateMutability": "view",
      "type": "function"
    },
    {
      "inputs": [
        {
          "internalType": "uint256",
          "name": "tokenId",
          "type": "uint256"
        }
      ],
      "name": "ownerOf",
      "outputs": [
        {
          "internalType": "address",
          "name": "",
          "type": "address"
        }
      ],
      "stateMutability": "view",
      "type": "function"
    },
    {
      "inputs": [],
      "name": "renounceOwnership",
      "outputs": [],
      "stateMutability": "nonpayable",
      "type": "function"
    },
    {
      "inputs": [
        {
          "internalType": "address",
          "name": "to",
          "type": "address"
        },
        {
          "internalType": "string",
          "name": "uri",
          "type": "string"
        }
      ],
      "name": "safeMint",
      "outputs": [],
      "stateMutability": "nonpayable",
      "type": "function"
    },
    {
      "inputs": [
        {
          "internalType": "address",
          "name": "from",
          "type": "address"
        },
        {
          "internalType": "address",
          "name": "to",
          "type": "address"
        },
        {
          "internalType": "uint256",
          "name": "tokenId",
          "type": "uint256"
        }
      ],
      "name": "safeTransferFrom",
      "outputs": [],
      "stateMutability": "nonpayable",
      "type": "function"
    },
    {
      "inputs": [
        {
          "internalType": "address",
          "name": "from",
          "type": "address"
        },
        {
          "internalType": "address",
          "name": "to",
          "type": "address"
        },
        {
          "internalType": "uint256",
          "name": "tokenId",
          "type": "uint256"
        },
        {
          "internalType": "bytes",
          "name": "data",
          "type": "bytes"
        }
      ],
      "name": "safeTransferFrom",
      "outputs": [],
      "stateMutability": "nonpayable",
      "type": "function"
    },
    {
      "inputs": [
        {
          "internalType": "address",
          "name": "operator",
          "type": "address"
        },
        {
          "internalType": "bool",
          "name": "approved",
          "type": "bool"
        }
      ],
      "name": "setApprovalForAll",
      "outputs": [],
      "stateMutability": "nonpayable",
      "type": "function"
    },
    {
      "inputs": [
        {
          "internalType": "bytes4",
          "name": "interfaceId",
          "type": "bytes4"
        }
      ],
      "name": "supportsInterface",
      "outputs": [
        {
          "internalType": "bool",
          "name": "",
          "type": "bool"
        }
      ],
      "stateMutability": "view",
      "type": "function"
    },
    {
      "inputs": [],
      "name": "symbol",
      "outputs": [
        {
          "internalType": "string",
          "name": "",
          "type": "string"
        }
      ],
      "stateMutability": "view",
      "type": "function"
    },
    {
      "inputs": [
        {
          "internalType": "uint256",
          "name": "index",
          "type": "uint256"
        }
      ],
      "name": "tokenByIndex",
      "outputs": [
        {
          "internalType": "uint256",
          "name": "",
          "type": "uint256"
        }
      ],
      "stateMutability": "view",
      "type": "function"
    },
    {
      "inputs": [
        {
          "internalType": "address",
          "name": "owner",
          "type": "address"
        },
        {
          "internalType": "uint256",
          "name": "index",
          "type": "uint256"
        }
      ],
      "name": "tokenOfOwnerByIndex",
      "outputs": [
        {
          "internalType": "uint256",
          "name": "",
          "type": "uint256"
        }
      ],
      "stateMutability": "view",
      "type": "function"
    },
    {
      "inputs": [
        {
          "internalType": "uint256",
          "name": "tokenId",
          "type": "uint256"
        }
      ],
      "name": "tokenURI",
      "outputs": [
        {
          "internalType": "string",
          "name": "",
          "type": "string"
        }
      ],
      "stateMutability": "view",
      "type": "function"
    },
    {
      "inputs": [],
      "name": "totalSupply",
      "outputs": [
        {
          "internalType": "uint256",
          "name": "",
          "type": "uint256"
        }
      ],
      "stateMutability": "view",
      "type": "function"
    },
    {
      "inputs": [
        {
          "internalType": "address",
          "name": "from",
          "type": "address"
        },
        {
          "internalType": "address",
          "name": "to",
          "type": "address"
        },
        {
          "internalType": "uint256",
          "name": "tokenId",
          "type": "uint256"
        }
      ],
      "name": "transferFrom",
      "outputs": [],
      "stateMutability": "nonpayable",
      "type": "function"
    },
    {
      "inputs": [
        {
          "internalType": "address",
          "name": "newOwner",
          "type": "address"
        }
      ],
      "name": "transferOwnership",
      "outputs": [],
      "stateMutability": "nonpayable",
      "type": "function"
    },
    {
      "inputs": [],
      "name": "withdraw",
      "outputs": [],
      "stateMutability": "nonpayable",
      "type": "function"
    },
    {
      "stateMutability": "payable",
      "type": "receive"
    }
  ],
  "bytecode": "0x60806040523480156200001157600080fd5b506040516200429b3803806200429b8339818101604052810190620000379190620003b0565b818181600090805190602001906200005192919062000163565b5080600190805190602001906200006a92919062000163565b5050506200008d620000816200009560201b60201c565b6200009d60201b60201c565b50506200049a565b600033905090565b6000600b60009054906101000a900473ffffffffffffffffffffffffffffffffffffffff16905081600b60006101000a81548173ffffffffffffffffffffffffffffffffffffffff021916908373ffffffffffffffffffffffffffffffffffffffff1602179055508173ffffffffffffffffffffffffffffffffffffffff168173ffffffffffffffffffffffffffffffffffffffff167f8be0079c531659141344cd1fd0a4f28419497f9722a3daafe3b4186f6b6457e060405160405180910390a35050565b828054620001719062000464565b90600052602060002090601f016020900481019282620001955760008555620001e1565b82601f10620001b057805160ff1916838001178555620001e1565b82800160010185558215620001e1579182015b82811115620001e0578251825591602001919060010190620001c3565b5b509050620001f09190620001f4565b5090565b5b808211156200020f576000816000905550600101620001f5565b5090565b6000604051905090565b600080fd5b600080fd5b600080fd5b600080fd5b6000601f19601f8301169050919050565b7f4e487b7100000000000000000000000000000000000000000000000000000000600052604160045260246000fd5b6200027c8262000231565b810181811067ffffffffffffffff821117156200029e576200029d62000242565b5b80604052505050565b6000620002b362000213565b9050620002c1828262000271565b919050565b600067ffffffffffffffff821115620002e457620002e362000242565b5b620002ef8262000231565b9050602081019050919050565b60005b838110156200031c578082015181840152602081019050620002ff565b838111156200032c576000848401525b50505050565b6000620003496200034384620002c6565b620002a7565b9050828152602081018484840111156200036857620003676200022c565b5b62000375848285620002fc565b509392505050565b600082601f83011262000395576200039462000227565b5b8151620003a784826020860162000332565b91505092915050565b60008060408385031215620003ca57620003c96200021d565b5b600083015167ffffffffffffffff811115620003eb57620003ea62000222565b5b620003f9858286016200037d565b925050602083015167ffffffffffffffff8111156200041d576200041c62000222565b5b6200042b858286016200037d565b9150509250929050565b7f4e487b7100000000000000000000000000000000000000000000000000000000600052602260045260246000fd5b600060028204905060018216806200047d57607f821691505b6020821081141562000494576200049362000435565b5b50919050565b613df180620004aa6000396000f3fe6080604052600436106101445760003560e01c80636352211e116100b6578063a22cb4651161006f578063a22cb46514610469578063b88d4fde14610492578063c87b56dd146104bb578063d204c45e146104f8578063e985e9c514610521578063f2fde38b1461055e5761014b565b80636352211e1461035757806370a0823114610394578063715018a6146103d15780638da5cb5b146103e857806395d89b41146104135780639ebeef591461043e5761014b565b806323b872dd1161010857806323b872dd146102495780632f745c591461027257806332cb6b0c146102af5780633ccfd60b146102da57806342842e0e146102f15780634f6ccce71461031a5761014b565b806301ffc9a71461015057806306fdde031461018d578063081812fc146101b8578063095ea7b3146101f557806318160ddd1461021e5761014b565b3661014b57005b600080fd5b34801561015c57600080fd5b506101776004803603810190610172919061288f565b610587565b60405161018491906128d7565b60405180910390f35b34801561019957600080fd5b506101a2610599565b6040516101af919061298b565b60405180910390f35b3480156101c457600080fd5b506101df60048036038101906101da91906129e3565b61062b565b6040516101ec9190612a51565b60405180910390f35b34801561020157600080fd5b5061021c60048036038101906102179190612a98565b610671565b005b34801561022a57600080fd5b50610233610789565b6040516102409190612ae7565b60405180910390f35b34801561025557600080fd5b50610270600480360381019061026b9190612b02565b610796565b005b34801561027e57600080fd5b5061029960048036038101906102949190612a98565b6107f6565b6040516102a69190612ae7565b60405180910390f35b3480156102bb57600080fd5b506102c461089b565b6040516102d19190612b71565b60405180910390f35b3480156102e657600080fd5b506102ef6108a0565b005b3480156102fd57600080fd5b5061031860048036038101906103139190612b02565b6108f8565b005b34801561032657600080fd5b50610341600480360381019061033c91906129e3565b610918565b60405161034e9190612ae7565b60405180910390f35b34801561036357600080fd5b5061037e600480360381019061037991906129e3565b610989565b60405161038b9190612a51565b60405180910390f35b3480156103a057600080fd5b506103bb60048036038101906103b69190612b8c565b610a10565b6040516103c89190612ae7565b60405180910390f35b3480156103dd57600080fd5b506103e6610ac8565b005b3480156103f457600080fd5b506103fd610adc565b60405161040a9190612a51565b60405180910390f35b34801561041f57600080fd5b50610428610b06565b604051610435919061298b565b60405180910390f35b34801561044a57600080fd5b50610453610b98565b6040516104609190612d33565b60405180910390f35b34801561047557600080fd5b50610490600480360381019061048b9190612d81565b610c84565b005b34801561049e57600080fd5b506104b960048036038101906104b49190612ef6565b610c9a565b005b3480156104c757600080fd5b506104e260048036038101906104dd91906129e3565b610cfc565b6040516104ef919061298b565b60405180910390f35b34801561050457600080fd5b5061051f600480360381019061051a919061301a565b610d0e565b005b34801561052d57600080fd5b5061054860048036038101906105439190613076565b610dfb565b60405161055591906128d7565b60405180910390f35b34801561056a57600080fd5b5061058560048036038101906105809190612b8c565b610e8f565b005b600061059282610f13565b9050919050565b6060600080546105a8906130e5565b80601f01602080910402602001604051908101604052809291908181526020018280546105d4906130e5565b80156106215780601f106105f657610100808354040283529160200191610621565b820191906000526020600020905b81548152906001019060200180831161060457829003601f168201915b5050505050905090565b600061063682610f8d565b6004600083815260200190815260200160002060009054906101000a900473ffffffffffffffffffffffffffffffffffffffff169050919050565b600061067c82610989565b90508073ffffffffffffffffffffffffffffffffffffffff168373ffffffffffffffffffffffffffffffffffffffff1614156106ed576040517f08c379a00000000000000000000000000000000000000000000000000000000081526004016106e490613189565b60405180910390fd5b8073ffffffffffffffffffffffffffffffffffffffff1661070c610fd8565b73ffffffffffffffffffffffffffffffffffffffff16148061073b575061073a81610735610fd8565b610dfb565b5b61077a576040517f08c379a00000000000000000000000000000000000000000000000000000000081526004016107719061321b565b60405180910390fd5b6107848383610fe0565b505050565b6000600880549050905090565b6107a76107a1610fd8565b82611099565b6107e6576040517f08c379a00000000000000000000000000000000000000000000000000000000081526004016107dd906132ad565b60405180910390fd5b6107f183838361112e565b505050565b600061080183610a10565b8210610842576040517f08c379a00000000000000000000000000000000000000000000000000000000081526004016108399061333f565b60405180910390fd5b600660008473ffffffffffffffffffffffffffffffffffffffff1673ffffffffffffffffffffffffffffffffffffffff168152602001908152602001600020600083815260200190815260200160002054905092915050565b606481565b6108a8611428565b6108b0610adc565b73ffffffffffffffffffffffffffffffffffffffff166108fc479081150290604051600060405180830381858888f193505050501580156108f5573d6000803e3d6000fd5b50565b61091383838360405180602001604052806000815250610c9a565b505050565b6000610922610789565b8210610963576040517f08c379a000000000000000000000000000000000000000000000000000000000815260040161095a906133d1565b60405180910390fd5b60088281548110610977576109766133f1565b5b90600052602060002001549050919050565b600080610995836114a6565b9050600073ffffffffffffffffffffffffffffffffffffffff168173ffffffffffffffffffffffffffffffffffffffff161415610a07576040517f08c379a00000000000000000000000000000000000000000000000000000000081526004016109fe9061346c565b60405180910390fd5b80915050919050565b60008073ffffffffffffffffffffffffffffffffffffffff168273ffffffffffffffffffffffffffffffffffffffff161415610a81576040517f08c379a0000000000000000000000000000000000000000000000000000000008152600401610a78906134fe565b60405180910390fd5b600360008373ffffffffffffffffffffffffffffffffffffffff1673ffffffffffffffffffffffffffffffffffffffff168152602001908152602001600020549050919050565b610ad0611428565b610ada60006114e3565b565b6000600b60009054906101000a900473ffffffffffffffffffffffffffffffffffffffff16905090565b606060018054610b15906130e5565b80601f0160208091040260200160405190810160405280929190818152602001828054610b41906130e5565b8015610b8e5780601f10610b6357610100808354040283529160200191610b8e565b820191906000526020600020905b815481529060010190602001808311610b7157829003601f168201915b5050505050905090565b60606000610ba4610789565b905060008167ffffffffffffffff811115610bc257610bc1612dcb565b5b604051908082528060200260200182016040528015610bfb57816020015b610be8612749565b815260200190600190039081610be05790505b50905060005b82811015610c7b576040518060600160405280828152602001610c2383610989565b73ffffffffffffffffffffffffffffffffffffffff168152602001610c4783610cfc565b815250828281518110610c5d57610c5c6133f1565b5b60200260200101819052508080610c739061354d565b915050610c01565b50809250505090565b610c96610c8f610fd8565b83836115a9565b5050565b610cab610ca5610fd8565b83611099565b610cea576040517f08c379a0000000000000000000000000000000000000000000000000000000008152600401610ce1906132ad565b60405180910390fd5b610cf684848484611716565b50505050565b6060610d0782611772565b9050919050565b610d16611428565b606460ff16610d23610789565b10610d63576040517f08c379a0000000000000000000000000000000000000000000000000000000008152600401610d5a906135e2565b60405180910390fd5b6000610d6f600c611885565b9050610d7b600c611893565b610d8583826118a9565b610d8f81836118c7565b7fffad858c03cf4c6b4df60762a3c22c6288da8edfdf993960d8fdc1af09b436cb60405180606001604052808381526020013373ffffffffffffffffffffffffffffffffffffffff16815260200184815250604051610dee9190613652565b60405180910390a1505050565b6000600560008473ffffffffffffffffffffffffffffffffffffffff1673ffffffffffffffffffffffffffffffffffffffff16815260200190815260200160002060008373ffffffffffffffffffffffffffffffffffffffff1673ffffffffffffffffffffffffffffffffffffffff16815260200190815260200160002060009054906101000a900460ff16905092915050565b610e97611428565b600073ffffffffffffffffffffffffffffffffffffffff168173ffffffffffffffffffffffffffffffffffffffff161415610f07576040517f08c379a0000000000000000000000000000000000000000000000000000000008152600401610efe906136e6565b60405180910390fd5b610f10816114e3565b50565b60007f780e9d63000000000000000000000000000000000000000000000000000000007bffffffffffffffffffffffffffffffffffffffffffffffffffffffff1916827bffffffffffffffffffffffffffffffffffffffffffffffffffffffff19161480610f865750610f858261193b565b5b9050919050565b610f9681611a1d565b610fd5576040517f08c379a0000000000000000000000000000000000000000000000000000000008152600401610fcc9061346c565b60405180910390fd5b50565b600033905090565b816004600083815260200190815260200160002060006101000a81548173ffffffffffffffffffffffffffffffffffffffff021916908373ffffffffffffffffffffffffffffffffffffffff160217905550808273ffffffffffffffffffffffffffffffffffffffff1661105383610989565b73ffffffffffffffffffffffffffffffffffffffff167f8c5be1e5ebec7d5bd14f71427d1e84f3dd0314c0f7b2291e5b200ac8c7c3b92560405160405180910390a45050565b6000806110a583610989565b90508073ffffffffffffffffffffffffffffffffffffffff168473ffffffffffffffffffffffffffffffffffffffff1614806110e757506110e68185610dfb565b5b8061112557508373ffffffffffffffffffffffffffffffffffffffff1661110d8461062b565b73ffffffffffffffffffffffffffffffffffffffff16145b91505092915050565b8273ffffffffffffffffffffffffffffffffffffffff1661114e82610989565b73ffffffffffffffffffffffffffffffffffffffff16146111a4576040517f08c379a000000000000000000000000000000000000000000000000000000000815260040161119b90613778565b60405180910390fd5b600073ffffffffffffffffffffffffffffffffffffffff168273ffffffffffffffffffffffffffffffffffffffff161415611214576040517f08c379a000000000000000000000000000000000000000000000000000000000815260040161120b9061380a565b60405180910390fd5b6112218383836001611a5e565b8273ffffffffffffffffffffffffffffffffffffffff1661124182610989565b73ffffffffffffffffffffffffffffffffffffffff1614611297576040517f08c379a000000000000000000000000000000000000000000000000000000000815260040161128e90613778565b60405180910390fd5b6004600082815260200190815260200160002060006101000a81549073ffffffffffffffffffffffffffffffffffffffff02191690556001600360008573ffffffffffffffffffffffffffffffffffffffff1673ffffffffffffffffffffffffffffffffffffffff168152602001908152602001600020600082825403925050819055506001600360008473ffffffffffffffffffffffffffffffffffffffff1673ffffffffffffffffffffffffffffffffffffffff16815260200190815260200160002060008282540192505081905550816002600083815260200190815260200160002060006101000a81548173ffffffffffffffffffffffffffffffffffffffff021916908373ffffffffffffffffffffffffffffffffffffffff160217905550808273ffffffffffffffffffffffffffffffffffffffff168473ffffffffffffffffffffffffffffffffffffffff167fddf252ad1be2c89b69c2b068fc378daa952ba7f163c4a11628f55a4df523b3ef60405160405180910390a46114238383836001611a70565b505050565b611430610fd8565b73ffffffffffffffffffffffffffffffffffffffff1661144e610adc565b73ffffffffffffffffffffffffffffffffffffffff16146114a4576040517f08c379a000000000000000000000000000000000000000000000000000000000815260040161149b90613876565b60405180910390fd5b565b60006002600083815260200190815260200160002060009054906101000a900473ffffffffffffffffffffffffffffffffffffffff169050919050565b6000600b60009054906101000a900473ffffffffffffffffffffffffffffffffffffffff16905081600b60006101000a81548173ffffffffffffffffffffffffffffffffffffffff021916908373ffffffffffffffffffffffffffffffffffffffff1602179055508173ffffffffffffffffffffffffffffffffffffffff168173ffffffffffffffffffffffffffffffffffffffff167f8be0079c531659141344cd1fd0a4f28419497f9722a3daafe3b4186f6b6457e060405160405180910390a35050565b8173ffffffffffffffffffffffffffffffffffffffff168373ffffffffffffffffffffffffffffffffffffffff161415611618576040517f08c379a000000000000000000000000000000000000000000000000000000000815260040161160f906138e2565b60405180910390fd5b80600560008573ffffffffffffffffffffffffffffffffffffffff1673ffffffffffffffffffffffffffffffffffffffff16815260200190815260200160002060008473ffffffffffffffffffffffffffffffffffffffff1673ffffffffffffffffffffffffffffffffffffffff16815260200190815260200160002060006101000a81548160ff0219169083151502179055508173ffffffffffffffffffffffffffffffffffffffff168373ffffffffffffffffffffffffffffffffffffffff167f17307eab39ab6107e8899845ad3d59bd9653f200f220920489ca2b5937696c318360405161170991906128d7565b60405180910390a3505050565b61172184848461112e565b61172d84848484611a76565b61176c576040517f08c379a000000000000000000000000000000000000000000000000000000000815260040161176390613974565b60405180910390fd5b50505050565b606061177d82610f8d565b6000600a6000848152602001908152602001600020805461179d906130e5565b80601f01602080910402602001604051908101604052809291908181526020018280546117c9906130e5565b80156118165780601f106117eb57610100808354040283529160200191611816565b820191906000526020600020905b8154815290600101906020018083116117f957829003601f168201915b505050505090506000611827611c0d565b905060008151141561183d578192505050611880565b60008251111561187257808260405160200161185a9291906139d0565b60405160208183030381529060405292505050611880565b61187b84611c24565b925050505b919050565b600081600001549050919050565b6001816000016000828254019250508190555050565b6118c3828260405180602001604052806000815250611c8c565b5050565b6118d082611a1d565b61190f576040517f08c379a000000000000000000000000000000000000000000000000000000000815260040161190690613a66565b60405180910390fd5b80600a60008481526020019081526020016000209080519060200190611936929190612780565b505050565b60007f80ac58cd000000000000000000000000000000000000000000000000000000007bffffffffffffffffffffffffffffffffffffffffffffffffffffffff1916827bffffffffffffffffffffffffffffffffffffffffffffffffffffffff19161480611a0657507f5b5e139f000000000000000000000000000000000000000000000000000000007bffffffffffffffffffffffffffffffffffffffffffffffffffffffff1916827bffffffffffffffffffffffffffffffffffffffffffffffffffffffff1916145b80611a165750611a1582611ce7565b5b9050919050565b60008073ffffffffffffffffffffffffffffffffffffffff16611a3f836114a6565b73ffffffffffffffffffffffffffffffffffffffff1614159050919050565b611a6a84848484611d51565b50505050565b50505050565b6000611a978473ffffffffffffffffffffffffffffffffffffffff16611eb1565b15611c00578373ffffffffffffffffffffffffffffffffffffffff1663150b7a02611ac0610fd8565b8786866040518563ffffffff1660e01b8152600401611ae29493929190613adb565b602060405180830381600087803b158015611afc57600080fd5b505af1925050508015611b2d57506040513d601f19601f82011682018060405250810190611b2a9190613b3c565b60015b611bb0573d8060008114611b5d576040519150601f19603f3d011682016040523d82523d6000602084013e611b62565b606091505b50600081511415611ba8576040517f08c379a0000000000000000000000000000000000000000000000000000000008152600401611b9f90613974565b60405180910390fd5b805181602001fd5b63150b7a0260e01b7bffffffffffffffffffffffffffffffffffffffffffffffffffffffff1916817bffffffffffffffffffffffffffffffffffffffffffffffffffffffff191614915050611c05565b600190505b949350505050565b606060405180602001604052806000815250905090565b6060611c2f82610f8d565b6000611c39611c0d565b90506000815111611c595760405180602001604052806000815250611c84565b80611c6384611ed4565b604051602001611c749291906139d0565b6040516020818303038152906040525b915050919050565b611c968383611fac565b611ca36000848484611a76565b611ce2576040517f08c379a0000000000000000000000000000000000000000000000000000000008152600401611cd990613974565b60405180910390fd5b505050565b60007f01ffc9a7000000000000000000000000000000000000000000000000000000007bffffffffffffffffffffffffffffffffffffffffffffffffffffffff1916827bffffffffffffffffffffffffffffffffffffffffffffffffffffffff1916149050919050565b611d5d848484846121ca565b6001811115611da1576040517f08c379a0000000000000000000000000000000000000000000000000000000008152600401611d9890613bdb565b60405180910390fd5b6000829050600073ffffffffffffffffffffffffffffffffffffffff168573ffffffffffffffffffffffffffffffffffffffff161415611de957611de4816122f0565b611e28565b8373ffffffffffffffffffffffffffffffffffffffff168573ffffffffffffffffffffffffffffffffffffffff1614611e2757611e268582612339565b5b5b600073ffffffffffffffffffffffffffffffffffffffff168473ffffffffffffffffffffffffffffffffffffffff161415611e6b57611e66816124a6565b611eaa565b8473ffffffffffffffffffffffffffffffffffffffff168473ffffffffffffffffffffffffffffffffffffffff1614611ea957611ea88482612577565b5b5b5050505050565b6000808273ffffffffffffffffffffffffffffffffffffffff163b119050919050565b606060006001611ee3846125f6565b01905060008167ffffffffffffffff811115611f0257611f01612dcb565b5b6040519080825280601f01601f191660200182016040528015611f345781602001600182028036833780820191505090505b509050600082602001820190505b600115611fa1578080600190039150507f3031323334353637383961626364656600000000000000000000000000000000600a86061a8153600a8581611f8b57611f8a613bfb565b5b0494506000851415611f9c57611fa1565b611f42565b819350505050919050565b600073ffffffffffffffffffffffffffffffffffffffff168273ffffffffffffffffffffffffffffffffffffffff16141561201c576040517f08c379a000000000000000000000000000000000000000000000000000000000815260040161201390613c76565b60405180910390fd5b61202581611a1d565b15612065576040517f08c379a000000000000000000000000000000000000000000000000000000000815260040161205c90613ce2565b60405180910390fd5b612073600083836001611a5e565b61207c81611a1d565b156120bc576040517f08c379a00000000000000000000000000000000000000000000000000000000081526004016120b390613ce2565b60405180910390fd5b6001600360008473ffffffffffffffffffffffffffffffffffffffff1673ffffffffffffffffffffffffffffffffffffffff16815260200190815260200160002060008282540192505081905550816002600083815260200190815260200160002060006101000a81548173ffffffffffffffffffffffffffffffffffffffff021916908373ffffffffffffffffffffffffffffffffffffffff160217905550808273ffffffffffffffffffffffffffffffffffffffff16600073ffffffffffffffffffffffffffffffffffffffff167fddf252ad1be2c89b69c2b068fc378daa952ba7f163c4a11628f55a4df523b3ef60405160405180910390a46121c6600083836001611a70565b5050565b60018111156122ea57600073ffffffffffffffffffffffffffffffffffffffff168473ffffffffffffffffffffffffffffffffffffffff161461225e5780600360008673ffffffffffffffffffffffffffffffffffffffff1673ffffffffffffffffffffffffffffffffffffffff16815260200190815260200160002060008282546122569190613d02565b925050819055505b600073ffffffffffffffffffffffffffffffffffffffff168373ffffffffffffffffffffffffffffffffffffffff16146122e95780600360008573ffffffffffffffffffffffffffffffffffffffff1673ffffffffffffffffffffffffffffffffffffffff16815260200190815260200160002060008282546122e19190613d36565b925050819055505b5b50505050565b6008805490506009600083815260200190815260200160002081905550600881908060018154018082558091505060019003906000526020600020016000909190919091505550565b6000600161234684610a10565b6123509190613d02565b9050600060076000848152602001908152602001600020549050818114612435576000600660008673ffffffffffffffffffffffffffffffffffffffff1673ffffffffffffffffffffffffffffffffffffffff168152602001908152602001600020600084815260200190815260200160002054905080600660008773ffffffffffffffffffffffffffffffffffffffff1673ffffffffffffffffffffffffffffffffffffffff168152602001908152602001600020600084815260200190815260200160002081905550816007600083815260200190815260200160002081905550505b6007600084815260200190815260200160002060009055600660008573ffffffffffffffffffffffffffffffffffffffff1673ffffffffffffffffffffffffffffffffffffffff16815260200190815260200160002060008381526020019081526020016000206000905550505050565b600060016008805490506124ba9190613d02565b90506000600960008481526020019081526020016000205490506000600883815481106124ea576124e96133f1565b5b90600052602060002001549050806008838154811061250c5761250b6133f1565b5b90600052602060002001819055508160096000838152602001908152602001600020819055506009600085815260200190815260200160002060009055600880548061255b5761255a613d8c565b5b6001900381819060005260206000200160009055905550505050565b600061258283610a10565b905081600660008573ffffffffffffffffffffffffffffffffffffffff1673ffffffffffffffffffffffffffffffffffffffff168152602001908152602001600020600083815260200190815260200160002081905550806007600084815260200190815260200160002081905550505050565b600080600090507a184f03e93ff9f4daa797ed6e38ed64bf6a1f0100000000000000008310612654577a184f03e93ff9f4daa797ed6e38ed64bf6a1f010000000000000000838161264a57612649613bfb565b5b0492506040810190505b6d04ee2d6d415b85acef81000000008310612691576d04ee2d6d415b85acef8100000000838161268757612686613bfb565b5b0492506020810190505b662386f26fc1000083106126c057662386f26fc1000083816126b6576126b5613bfb565b5b0492506010810190505b6305f5e10083106126e9576305f5e10083816126df576126de613bfb565b5b0492506008810190505b612710831061270e57612710838161270457612703613bfb565b5b0492506004810190505b60648310612731576064838161272757612726613bfb565b5b0492506002810190505b600a8310612740576001810190505b80915050919050565b604051806060016040528060008152602001600073ffffffffffffffffffffffffffffffffffffffff168152602001606081525090565b82805461278c906130e5565b90600052602060002090601f0160209004810192826127ae57600085556127f5565b82601f106127c757805160ff19168380011785556127f5565b828001600101855582156127f5579182015b828111156127f45782518255916020019190600101906127d9565b5b5090506128029190612806565b5090565b5b8082111561281f576000816000905550600101612807565b5090565b6000604051905090565b600080fd5b600080fd5b60007fffffffff0000000000000000000000000000000000000000000000000000000082169050919050565b61286c81612837565b811461287757600080fd5b50565b60008135905061288981612863565b92915050565b6000602082840312156128a5576128a461282d565b5b60006128b38482850161287a565b91505092915050565b60008115159050919050565b6128d1816128bc565b82525050565b60006020820190506128ec60008301846128c8565b92915050565b600081519050919050565b600082825260208201905092915050565b60005b8381101561292c578082015181840152602081019050612911565b8381111561293b576000848401525b50505050565b6000601f19601f8301169050919050565b600061295d826128f2565b61296781856128fd565b935061297781856020860161290e565b61298081612941565b840191505092915050565b600060208201905081810360008301526129a58184612952565b905092915050565b6000819050919050565b6129c0816129ad565b81146129cb57600080fd5b50565b6000813590506129dd816129b7565b92915050565b6000602082840312156129f9576129f861282d565b5b6000612a07848285016129ce565b91505092915050565b600073ffffffffffffffffffffffffffffffffffffffff82169050919050565b6000612a3b82612a10565b9050919050565b612a4b81612a30565b82525050565b6000602082019050612a666000830184612a42565b92915050565b612a7581612a30565b8114612a8057600080fd5b50565b600081359050612a9281612a6c565b92915050565b60008060408385031215612aaf57612aae61282d565b5b6000612abd85828601612a83565b9250506020612ace858286016129ce565b9150509250929050565b612ae1816129ad565b82525050565b6000602082019050612afc6000830184612ad8565b92915050565b600080600060608486031215612b1b57612b1a61282d565b5b6000612b2986828701612a83565b9350506020612b3a86828701612a83565b9250506040612b4b868287016129ce565b9150509250925092565b600060ff82169050919050565b612b6b81612b55565b82525050565b6000602082019050612b866000830184612b62565b92915050565b600060208284031215612ba257612ba161282d565b5b6000612bb084828501612a83565b91505092915050565b600081519050919050565b600082825260208201905092915050565b6000819050602082019050919050565b612bee816129ad565b82525050565b612bfd81612a30565b82525050565b600082825260208201905092915050565b6000612c1f826128f2565b612c298185612c03565b9350612c3981856020860161290e565b612c4281612941565b840191505092915050565b6000606083016000830151612c656000860182612be5565b506020830151612c786020860182612bf4565b5060408301518482036040860152612c908282612c14565b9150508091505092915050565b6000612ca98383612c4d565b905092915050565b6000602082019050919050565b6000612cc982612bb9565b612cd38185612bc4565b935083602082028501612ce585612bd5565b8060005b85811015612d215784840389528151612d028582612c9d565b9450612d0d83612cb1565b925060208a01995050600181019050612ce9565b50829750879550505050505092915050565b60006020820190508181036000830152612d4d8184612cbe565b905092915050565b612d5e816128bc565b8114612d6957600080fd5b50565b600081359050612d7b81612d55565b92915050565b60008060408385031215612d9857612d9761282d565b5b6000612da685828601612a83565b9250506020612db785828601612d6c565b9150509250929050565b600080fd5b600080fd5b7f4e487b7100000000000000000000000000000000000000000000000000000000600052604160045260246000fd5b612e0382612941565b810181811067ffffffffffffffff82111715612e2257612e21612dcb565b5b80604052505050565b6000612e35612823565b9050612e418282612dfa565b919050565b600067ffffffffffffffff821115612e6157612e60612dcb565b5b612e6a82612941565b9050602081019050919050565b82818337600083830152505050565b6000612e99612e9484612e46565b612e2b565b905082815260208101848484011115612eb557612eb4612dc6565b5b612ec0848285612e77565b509392505050565b600082601f830112612edd57612edc612dc1565b5b8135612eed848260208601612e86565b91505092915050565b60008060008060808587031215612f1057612f0f61282d565b5b6000612f1e87828801612a83565b9450506020612f2f87828801612a83565b9350506040612f40878288016129ce565b925050606085013567ffffffffffffffff811115612f6157612f60612832565b5b612f6d87828801612ec8565b91505092959194509250565b600067ffffffffffffffff821115612f9457612f93612dcb565b5b612f9d82612941565b9050602081019050919050565b6000612fbd612fb884612f79565b612e2b565b905082815260208101848484011115612fd957612fd8612dc6565b5b612fe4848285612e77565b509392505050565b600082601f83011261300157613000612dc1565b5b8135613011848260208601612faa565b91505092915050565b600080604083850312156130315761303061282d565b5b600061303f85828601612a83565b925050602083013567ffffffffffffffff8111156130605761305f612832565b5b61306c85828601612fec565b9150509250929050565b6000806040838503121561308d5761308c61282d565b5b600061309b85828601612a83565b92505060206130ac85828601612a83565b9150509250929050565b7f4e487b7100000000000000000000000000000000000000000000000000000000600052602260045260246000fd5b600060028204905060018216806130fd57607f821691505b60208210811415613111576131106130b6565b5b50919050565b7f4552433732313a20617070726f76616c20746f2063757272656e74206f776e6560008201527f7200000000000000000000000000000000000000000000000000000000000000602082015250565b60006131736021836128fd565b915061317e82613117565b604082019050919050565b600060208201905081810360008301526131a281613166565b9050919050565b7f4552433732313a20617070726f76652063616c6c6572206973206e6f7420746f60008201527f6b656e206f776e6572206f7220617070726f76656420666f7220616c6c000000602082015250565b6000613205603d836128fd565b9150613210826131a9565b604082019050919050565b60006020820190508181036000830152613234816131f8565b9050919050565b7f4552433732313a2063616c6c6572206973206e6f7420746f6b656e206f776e6560008201527f72206f7220617070726f76656400000000000000000000000000000000000000602082015250565b6000613297602d836128fd565b91506132a28261323b565b604082019050919050565b600060208201905081810360008301526132c68161328a565b9050919050565b7f455243373231456e756d657261626c653a206f776e657220696e646578206f7560008201527f74206f6620626f756e6473000000000000000000000000000000000000000000602082015250565b6000613329602b836128fd565b9150613334826132cd565b604082019050919050565b600060208201905081810360008301526133588161331c565b9050919050565b7f455243373231456e756d657261626c653a20676c6f62616c20696e646578206f60008201527f7574206f6620626f756e64730000000000000000000000000000000000000000602082015250565b60006133bb602c836128fd565b91506133c68261335f565b604082019050919050565b600060208201905081810360008301526133ea816133ae565b9050919050565b7f4e487b7100000000000000000000000000000000000000000000000000000000600052603260045260246000fd5b7f4552433732313a20696e76616c696420746f6b656e2049440000000000000000600082015250565b60006134566018836128fd565b915061346182613420565b602082019050919050565b6000602082019050818103600083015261348581613449565b9050919050565b7f4552433732313a2061646472657373207a65726f206973206e6f74206120766160008201527f6c6964206f776e65720000000000000000000000000000000000000000000000602082015250565b60006134e86029836128fd565b91506134f38261348c565b604082019050919050565b60006020820190508181036000830152613517816134db565b9050919050565b7f4e487b7100000000000000000000000000000000000000000000000000000000600052601160045260246000fd5b6000613558826129ad565b91507fffffffffffffffffffffffffffffffffffffffffffffffffffffffffffffffff82141561358b5761358a61351e565b5b600182019050919050565b7f4d6178696d756d20537570706c79204c696d6974205265616368656400000000600082015250565b60006135cc601c836128fd565b91506135d782613596565b602082019050919050565b600060208201905081810360008301526135fb816135bf565b9050919050565b600060608301600083015161361a6000860182612be5565b50602083015161362d6020860182612bf4565b50604083015184820360408601526136458282612c14565b9150508091505092915050565b6000602082019050818103600083015261366c8184613602565b905092915050565b7f4f776e61626c653a206e6577206f776e657220697320746865207a65726f206160008201527f6464726573730000000000000000000000000000000000000000000000000000602082015250565b60006136d06026836128fd565b91506136db82613674565b604082019050919050565b600060208201905081810360008301526136ff816136c3565b9050919050565b7f4552433732313a207472616e736665722066726f6d20696e636f72726563742060008201527f6f776e6572000000000000000000000000000000000000000000000000000000602082015250565b60006137626025836128fd565b915061376d82613706565b604082019050919050565b6000602082019050818103600083015261379181613755565b9050919050565b7f4552433732313a207472616e7366657220746f20746865207a65726f2061646460008201527f7265737300000000000000000000000000000000000000000000000000000000602082015250565b60006137f46024836128fd565b91506137ff82613798565b604082019050919050565b60006020820190508181036000830152613823816137e7565b9050919050565b7f4f776e61626c653a2063616c6c6572206973206e6f7420746865206f776e6572600082015250565b60006138606020836128fd565b915061386b8261382a565b602082019050919050565b6000602082019050818103600083015261388f81613853565b9050919050565b7f4552433732313a20617070726f766520746f2063616c6c657200000000000000600082015250565b60006138cc6019836128fd565b91506138d782613896565b602082019050919050565b600060208201905081810360008301526138fb816138bf565b9050919050565b7f4552433732313a207472616e7366657220746f206e6f6e20455243373231526560008201527f63656976657220696d706c656d656e7465720000000000000000000000000000602082015250565b600061395e6032836128fd565b915061396982613902565b604082019050919050565b6000602082019050818103600083015261398d81613951565b9050919050565b600081905092915050565b60006139aa826128f2565b6139b48185613994565b93506139c481856020860161290e565b80840191505092915050565b60006139dc828561399f565b91506139e8828461399f565b91508190509392505050565b7f45524337323155524953746f726167653a2055524920736574206f66206e6f6e60008201527f6578697374656e7420746f6b656e000000000000000000000000000000000000602082015250565b6000613a50602e836128fd565b9150613a5b826139f4565b604082019050919050565b60006020820190508181036000830152613a7f81613a43565b9050919050565b600081519050919050565b600082825260208201905092915050565b6000613aad82613a86565b613ab78185613a91565b9350613ac781856020860161290e565b613ad081612941565b840191505092915050565b6000608082019050613af06000830187612a42565b613afd6020830186612a42565b613b0a6040830185612ad8565b8181036060830152613b1c8184613aa2565b905095945050505050565b600081519050613b3681612863565b92915050565b600060208284031215613b5257613b5161282d565b5b6000613b6084828501613b27565b91505092915050565b7f455243373231456e756d657261626c653a20636f6e736563757469766520747260008201527f616e7366657273206e6f7420737570706f727465640000000000000000000000602082015250565b6000613bc56035836128fd565b9150613bd082613b69565b604082019050919050565b60006020820190508181036000830152613bf481613bb8565b9050919050565b7f4e487b7100000000000000000000000000000000000000000000000000000000600052601260045260246000fd5b7f4552433732313a206d696e7420746f20746865207a65726f2061646472657373600082015250565b6000613c606020836128fd565b9150613c6b82613c2a565b602082019050919050565b60006020820190508181036000830152613c8f81613c53565b9050919050565b7f4552433732313a20746f6b656e20616c7265616479206d696e74656400000000600082015250565b6000613ccc601c836128fd565b9150613cd782613c96565b602082019050919050565b60006020820190508181036000830152613cfb81613cbf565b9050919050565b6000613d0d826129ad565b9150613d18836129ad565b925082821015613d2b57613d2a61351e565b5b828203905092915050565b6000613d41826129ad565b9150613d4c836129ad565b9250827fffffffffffffffffffffffffffffffffffffffffffffffffffffffffffffffff03821115613d8157613d8061351e565b5b828201905092915050565b7f4e487b7100000000000000000000000000000000000000000000000000000000600052603160045260246000fdfea2646970667358221220260a244b9379bac0bb28c0d9a641787961325fc3089f7aff9b88251e71e0f41864736f6c63430008090033",
  "linkReferences": {},
  "deployedLinkReferences": {}
}