{
  "_format": "hh-sol-artifact-1",
  "contractName": "NFTCollection",
  "sourceName": "contracts/NFTCollection.sol",
  "abi": [
    {
      "inputs": [
        {
          "internalType": "string",
          "name": "_name",
          "type": "string"
        },
        {
          "internalType": "string",
          "name": "_symbol",
          "type": "string"
        }
      ],
      "stateMutability": "nonpayable",
      "type": "constructor"
    },
    {
      "anonymous": false,
      "inputs": [
        {
          "indexed": true,
          "internalType": "address",
          "name": "owner",
          "type": "address"
        },
        {
          "indexed": true,
          "internalType": "address",
          "name": "approved",
          "type": "address"
        },
        {
          "indexed": true,
          "internalType": "uint256",
          "name": "tokenId",
          "type": "uint256"
        }
      ],
      "name": "Approval",
      "type": "event"
    },
    {
      "anonymous": false,
      "inputs": [
        {
          "indexed": true,
          "internalType": "address",
          "name": "owner",
          "type": "address"
        },
        {
          "indexed": true,
          "internalType": "address",
          "name": "operator",
          "type": "address"
        },
        {
          "indexed": false,
          "internalType": "bool",
          "name": "approved",
          "type": "bool"
        }
      ],
      "name": "ApprovalForAll",
      "type": "event"
    },
    {
      "anonymous": false,
      "inputs": [
        {
          "indexed": true,
          "internalType": "address",
          "name": "previousOwner",
          "type": "address"
        },
        {
          "indexed": true,
          "internalType": "address",
          "name": "newOwner",
          "type": "address"
        }
      ],
      "name": "OwnershipTransferred",
      "type": "event"
    },
    {
      "anonymous": false,
      "inputs": [
        {
          "indexed": true,
          "internalType": "address",
          "name": "from",
          "type": "address"
        },
        {
          "indexed": true,
          "internalType": "address",
          "name": "to",
          "type": "address"
        },
        {
          "indexed": true,
          "internalType": "uint256",
          "name": "tokenId",
          "type": "uint256"
        }
      ],
      "name": "Transfer",
      "type": "event"
    },
    {
      "inputs": [],
      "name": "MAX_SUPPLY",
      "outputs": [
        {
          "internalType": "uint8",
          "name": "",
          "type": "uint8"
        }
      ],
      "stateMutability": "view",
      "type": "function"
    },
    {
      "inputs": [
        {
          "internalType": "address",
          "name": "to",
          "type": "address"
        },
        {
          "internalType": "uint256",
          "name": "tokenId",
          "type": "uint256"
        }
      ],
      "name": "approve",
      "outputs": [],
      "stateMutability": "nonpayable",
      "type": "function"
    },
    {
      "inputs": [
        {
          "internalType": "address",
          "name": "owner",
          "type": "address"
        }
      ],
      "name": "balanceOf",
      "outputs": [
        {
          "internalType": "uint256",
          "name": "",
          "type": "uint256"
        }
      ],
      "stateMutability": "view",
      "type": "function"
    },
    {
      "inputs": [],
      "name": "getAllTokenUrls",
      "outputs": [
        {
          "internalType": "string[]",
          "name": "",
          "type": "string[]"
        }
      ],
      "stateMutability": "view",
      "type": "function"
    },
    {
      "inputs": [
        {
          "internalType": "address",
          "name": "_owner",
          "type": "address"
        }
      ],
      "name": "getAllTokenUrlsByOwner",
      "outputs": [
        {
          "internalType": "string[]",
          "name": "",
          "type": "string[]"
        }
      ],
      "stateMutability": "view",
      "type": "function"
    },
    {
      "inputs": [
        {
          "internalType": "uint256",
          "name": "tokenId",
          "type": "uint256"
        }
      ],
      "name": "getApproved",
      "outputs": [
        {
          "internalType": "address",
          "name": "",
          "type": "address"
        }
      ],
      "stateMutability": "view",
      "type": "function"
    },
    {
      "inputs": [
        {
          "internalType": "address",
          "name": "owner",
          "type": "address"
        },
        {
          "internalType": "address",
          "name": "operator",
          "type": "address"
        }
      ],
      "name": "isApprovedForAll",
      "outputs": [
        {
          "internalType": "bool",
          "name": "",
          "type": "bool"
        }
      ],
      "stateMutability": "view",
      "type": "function"
    },
    {
      "inputs": [],
      "name": "name",
      "outputs": [
        {
          "internalType": "string",
          "name": "",
          "type": "string"
        }
      ],
      "stateMutability": "view",
      "type": "function"
    },
    {
      "inputs": [],
      "name": "owner",
      "outputs": [
        {
          "internalType": "address",
          "name": "",
          "type": "address"
        }
      ],
      "stateMutability": "view",
      "type": "function"
    },
    {
      "inputs": [
        {
          "internalType": "uint256",
          "name": "tokenId",
          "type": "uint256"
        }
      ],
      "name": "ownerOf",
      "outputs": [
        {
          "internalType": "address",
          "name": "",
          "type": "address"
        }
      ],
      "stateMutability": "view",
      "type": "function"
    },
    {
      "inputs": [],
      "name": "renounceOwnership",
      "outputs": [],
      "stateMutability": "nonpayable",
      "type": "function"
    },
    {
      "inputs": [
        {
          "internalType": "address",
          "name": "to",
          "type": "address"
        },
        {
          "internalType": "string",
          "name": "uri",
          "type": "string"
        }
      ],
      "name": "safeMint",
      "outputs": [],
      "stateMutability": "nonpayable",
      "type": "function"
    },
    {
      "inputs": [
        {
          "internalType": "address",
          "name": "from",
          "type": "address"
        },
        {
          "internalType": "address",
          "name": "to",
          "type": "address"
        },
        {
          "internalType": "uint256",
          "name": "tokenId",
          "type": "uint256"
        }
      ],
      "name": "safeTransferFrom",
      "outputs": [],
      "stateMutability": "nonpayable",
      "type": "function"
    },
    {
      "inputs": [
        {
          "internalType": "address",
          "name": "from",
          "type": "address"
        },
        {
          "internalType": "address",
          "name": "to",
          "type": "address"
        },
        {
          "internalType": "uint256",
          "name": "tokenId",
          "type": "uint256"
        },
        {
          "internalType": "bytes",
          "name": "data",
          "type": "bytes"
        }
      ],
      "name": "safeTransferFrom",
      "outputs": [],
      "stateMutability": "nonpayable",
      "type": "function"
    },
    {
      "inputs": [
        {
          "internalType": "address",
          "name": "operator",
          "type": "address"
        },
        {
          "internalType": "bool",
          "name": "approved",
          "type": "bool"
        }
      ],
      "name": "setApprovalForAll",
      "outputs": [],
      "stateMutability": "nonpayable",
      "type": "function"
    },
    {
      "inputs": [
        {
          "internalType": "bytes4",
          "name": "interfaceId",
          "type": "bytes4"
        }
      ],
      "name": "supportsInterface",
      "outputs": [
        {
          "internalType": "bool",
          "name": "",
          "type": "bool"
        }
      ],
      "stateMutability": "view",
      "type": "function"
    },
    {
      "inputs": [],
      "name": "symbol",
      "outputs": [
        {
          "internalType": "string",
          "name": "",
          "type": "string"
        }
      ],
      "stateMutability": "view",
      "type": "function"
    },
    {
      "inputs": [
        {
          "internalType": "uint256",
          "name": "index",
          "type": "uint256"
        }
      ],
      "name": "tokenByIndex",
      "outputs": [
        {
          "internalType": "uint256",
          "name": "",
          "type": "uint256"
        }
      ],
      "stateMutability": "view",
      "type": "function"
    },
    {
      "inputs": [
        {
          "internalType": "address",
          "name": "owner",
          "type": "address"
        },
        {
          "internalType": "uint256",
          "name": "index",
          "type": "uint256"
        }
      ],
      "name": "tokenOfOwnerByIndex",
      "outputs": [
        {
          "internalType": "uint256",
          "name": "",
          "type": "uint256"
        }
      ],
      "stateMutability": "view",
      "type": "function"
    },
    {
      "inputs": [
        {
          "internalType": "uint256",
          "name": "tokenId",
          "type": "uint256"
        }
      ],
      "name": "tokenURI",
      "outputs": [
        {
          "internalType": "string",
          "name": "",
          "type": "string"
        }
      ],
      "stateMutability": "view",
      "type": "function"
    },
    {
      "inputs": [],
      "name": "totalSupply",
      "outputs": [
        {
          "internalType": "uint256",
          "name": "",
          "type": "uint256"
        }
      ],
      "stateMutability": "view",
      "type": "function"
    },
    {
      "inputs": [
        {
          "internalType": "address",
          "name": "from",
          "type": "address"
        },
        {
          "internalType": "address",
          "name": "to",
          "type": "address"
        },
        {
          "internalType": "uint256",
          "name": "tokenId",
          "type": "uint256"
        }
      ],
      "name": "transferFrom",
      "outputs": [],
      "stateMutability": "nonpayable",
      "type": "function"
    },
    {
      "inputs": [
        {
          "internalType": "address",
          "name": "newOwner",
          "type": "address"
        }
      ],
      "name": "transferOwnership",
      "outputs": [],
      "stateMutability": "nonpayable",
      "type": "function"
    }
  ],
  "bytecode": "0x60806040523480156200001157600080fd5b506040516200403d3803806200403d8339818101604052810190620000379190620003b0565b818181600090805190602001906200005192919062000163565b5080600190805190602001906200006a92919062000163565b5050506200008d620000816200009560201b60201c565b6200009d60201b60201c565b50506200049a565b600033905090565b6000600b60009054906101000a900473ffffffffffffffffffffffffffffffffffffffff16905081600b60006101000a81548173ffffffffffffffffffffffffffffffffffffffff021916908373ffffffffffffffffffffffffffffffffffffffff1602179055508173ffffffffffffffffffffffffffffffffffffffff168173ffffffffffffffffffffffffffffffffffffffff167f8be0079c531659141344cd1fd0a4f28419497f9722a3daafe3b4186f6b6457e060405160405180910390a35050565b828054620001719062000464565b90600052602060002090601f016020900481019282620001955760008555620001e1565b82601f10620001b057805160ff1916838001178555620001e1565b82800160010185558215620001e1579182015b82811115620001e0578251825591602001919060010190620001c3565b5b509050620001f09190620001f4565b5090565b5b808211156200020f576000816000905550600101620001f5565b5090565b6000604051905090565b600080fd5b600080fd5b600080fd5b600080fd5b6000601f19601f8301169050919050565b7f4e487b7100000000000000000000000000000000000000000000000000000000600052604160045260246000fd5b6200027c8262000231565b810181811067ffffffffffffffff821117156200029e576200029d62000242565b5b80604052505050565b6000620002b362000213565b9050620002c1828262000271565b919050565b600067ffffffffffffffff821115620002e457620002e362000242565b5b620002ef8262000231565b9050602081019050919050565b60005b838110156200031c578082015181840152602081019050620002ff565b838111156200032c576000848401525b50505050565b6000620003496200034384620002c6565b620002a7565b9050828152602081018484840111156200036857620003676200022c565b5b62000375848285620002fc565b509392505050565b600082601f83011262000395576200039462000227565b5b8151620003a784826020860162000332565b91505092915050565b60008060408385031215620003ca57620003c96200021d565b5b600083015167ffffffffffffffff811115620003eb57620003ea62000222565b5b620003f9858286016200037d565b925050602083015167ffffffffffffffff8111156200041d576200041c62000222565b5b6200042b858286016200037d565b9150509250929050565b7f4e487b7100000000000000000000000000000000000000000000000000000000600052602260045260246000fd5b600060028204905060018216806200047d57607f821691505b6020821081141562000494576200049362000435565b5b50919050565b613b9380620004aa6000396000f3fe608060405234801561001057600080fd5b506004361061014c5760003560e01c80634f6ccce7116100c3578063a22cb4651161007c578063a22cb465146103b3578063b88d4fde146103cf578063c87b56dd146103eb578063d204c45e1461041b578063e985e9c514610437578063f2fde38b146104675761014c565b80634f6ccce7146102dd5780636352211e1461030d57806370a082311461033d578063715018a61461036d5780638da5cb5b1461037757806395d89b41146103955761014c565b80631330bc2c116101155780631330bc2c1461020957806318160ddd1461023957806323b872dd146102575780632f745c591461027357806332cb6b0c146102a357806342842e0e146102c15761014c565b8062561c8a1461015157806301ffc9a71461016f57806306fdde031461019f578063081812fc146101bd578063095ea7b3146101ed575b600080fd5b610159610483565b6040516101669190612800565b60405180910390f35b6101896004803603810190610184919061288e565b610531565b60405161019691906128d6565b60405180910390f35b6101a7610543565b6040516101b4919061293b565b60405180910390f35b6101d760048036038101906101d29190612993565b6105d5565b6040516101e49190612a01565b60405180910390f35b61020760048036038101906102029190612a48565b61061b565b005b610223600480360381019061021e9190612a88565b610733565b6040516102309190612800565b60405180910390f35b6102416107ed565b60405161024e9190612ac4565b60405180910390f35b610271600480360381019061026c9190612adf565b6107fa565b005b61028d60048036038101906102889190612a48565b61085a565b60405161029a9190612ac4565b60405180910390f35b6102ab6108ff565b6040516102b89190612b4e565b60405180910390f35b6102db60048036038101906102d69190612adf565b610904565b005b6102f760048036038101906102f29190612993565b610924565b6040516103049190612ac4565b60405180910390f35b61032760048036038101906103229190612993565b610995565b6040516103349190612a01565b60405180910390f35b61035760048036038101906103529190612a88565b610a1c565b6040516103649190612ac4565b60405180910390f35b610375610ad4565b005b61037f610ae8565b60405161038c9190612a01565b60405180910390f35b61039d610b12565b6040516103aa919061293b565b60405180910390f35b6103cd60048036038101906103c89190612b95565b610ba4565b005b6103e960048036038101906103e49190612d0a565b610bba565b005b61040560048036038101906104009190612993565b610c1c565b604051610412919061293b565b60405180910390f35b61043560048036038101906104309190612e2e565b610c2e565b005b610451600480360381019061044c9190612e8a565b610cb4565b60405161045e91906128d6565b60405180910390f35b610481600480360381019061047c9190612a88565b610d48565b005b6060600061048f6107ed565b905060008167ffffffffffffffff8111156104ad576104ac612bdf565b5b6040519080825280602002602001820160405280156104e057816020015b60608152602001906001900390816104cb5790505b50905060005b82811015610528576104f781610c1c565b82828151811061050a57610509612eca565b5b6020026020010181905250808061052090612f28565b9150506104e6565b50809250505090565b600061053c82610dcc565b9050919050565b60606000805461055290612fa0565b80601f016020809104026020016040519081016040528092919081815260200182805461057e90612fa0565b80156105cb5780601f106105a0576101008083540402835291602001916105cb565b820191906000526020600020905b8154815290600101906020018083116105ae57829003601f168201915b5050505050905090565b60006105e082610e46565b6004600083815260200190815260200160002060009054906101000a900473ffffffffffffffffffffffffffffffffffffffff169050919050565b600061062682610995565b90508073ffffffffffffffffffffffffffffffffffffffff168373ffffffffffffffffffffffffffffffffffffffff161415610697576040517f08c379a000000000000000000000000000000000000000000000000000000000815260040161068e90613044565b60405180910390fd5b8073ffffffffffffffffffffffffffffffffffffffff166106b6610e91565b73ffffffffffffffffffffffffffffffffffffffff1614806106e557506106e4816106df610e91565b610cb4565b5b610724576040517f08c379a000000000000000000000000000000000000000000000000000000000815260040161071b906130d6565b60405180910390fd5b61072e8383610e99565b505050565b6060600061074083610a1c565b905060008167ffffffffffffffff81111561075e5761075d612bdf565b5b60405190808252806020026020018201604052801561079157816020015b606081526020019060019003908161077c5790505b50905060005b828110156107e2576107b16107ac868361085a565b610c1c565b8282815181106107c4576107c3612eca565b5b602002602001018190525080806107da90612f28565b915050610797565b508092505050919050565b6000600880549050905090565b61080b610805610e91565b82610f52565b61084a576040517f08c379a000000000000000000000000000000000000000000000000000000000815260040161084190613168565b60405180910390fd5b610855838383610fe7565b505050565b600061086583610a1c565b82106108a6576040517f08c379a000000000000000000000000000000000000000000000000000000000815260040161089d906131fa565b60405180910390fd5b600660008473ffffffffffffffffffffffffffffffffffffffff1673ffffffffffffffffffffffffffffffffffffffff168152602001908152602001600020600083815260200190815260200160002054905092915050565b606481565b61091f83838360405180602001604052806000815250610bba565b505050565b600061092e6107ed565b821061096f576040517f08c379a00000000000000000000000000000000000000000000000000000000081526004016109669061328c565b60405180910390fd5b6008828154811061098357610982612eca565b5b90600052602060002001549050919050565b6000806109a1836112e1565b9050600073ffffffffffffffffffffffffffffffffffffffff168173ffffffffffffffffffffffffffffffffffffffff161415610a13576040517f08c379a0000000000000000000000000000000000000000000000000000000008152600401610a0a906132f8565b60405180910390fd5b80915050919050565b60008073ffffffffffffffffffffffffffffffffffffffff168273ffffffffffffffffffffffffffffffffffffffff161415610a8d576040517f08c379a0000000000000000000000000000000000000000000000000000000008152600401610a849061338a565b60405180910390fd5b600360008373ffffffffffffffffffffffffffffffffffffffff1673ffffffffffffffffffffffffffffffffffffffff168152602001908152602001600020549050919050565b610adc61131e565b610ae6600061139c565b565b6000600b60009054906101000a900473ffffffffffffffffffffffffffffffffffffffff16905090565b606060018054610b2190612fa0565b80601f0160208091040260200160405190810160405280929190818152602001828054610b4d90612fa0565b8015610b9a5780601f10610b6f57610100808354040283529160200191610b9a565b820191906000526020600020905b815481529060010190602001808311610b7d57829003601f168201915b5050505050905090565b610bb6610baf610e91565b8383611462565b5050565b610bcb610bc5610e91565b83610f52565b610c0a576040517f08c379a0000000000000000000000000000000000000000000000000000000008152600401610c0190613168565b60405180910390fd5b610c16848484846115cf565b50505050565b6060610c278261162b565b9050919050565b610c3661131e565b606460ff16610c436107ed565b10610c83576040517f08c379a0000000000000000000000000000000000000000000000000000000008152600401610c7a906133f6565b60405180910390fd5b6000610c8f600c61173e565b9050610c9b600c61174c565b610ca58382611762565b610caf8183611780565b505050565b6000600560008473ffffffffffffffffffffffffffffffffffffffff1673ffffffffffffffffffffffffffffffffffffffff16815260200190815260200160002060008373ffffffffffffffffffffffffffffffffffffffff1673ffffffffffffffffffffffffffffffffffffffff16815260200190815260200160002060009054906101000a900460ff16905092915050565b610d5061131e565b600073ffffffffffffffffffffffffffffffffffffffff168173ffffffffffffffffffffffffffffffffffffffff161415610dc0576040517f08c379a0000000000000000000000000000000000000000000000000000000008152600401610db790613488565b60405180910390fd5b610dc98161139c565b50565b60007f780e9d63000000000000000000000000000000000000000000000000000000007bffffffffffffffffffffffffffffffffffffffffffffffffffffffff1916827bffffffffffffffffffffffffffffffffffffffffffffffffffffffff19161480610e3f5750610e3e826117f4565b5b9050919050565b610e4f816118d6565b610e8e576040517f08c379a0000000000000000000000000000000000000000000000000000000008152600401610e85906132f8565b60405180910390fd5b50565b600033905090565b816004600083815260200190815260200160002060006101000a81548173ffffffffffffffffffffffffffffffffffffffff021916908373ffffffffffffffffffffffffffffffffffffffff160217905550808273ffffffffffffffffffffffffffffffffffffffff16610f0c83610995565b73ffffffffffffffffffffffffffffffffffffffff167f8c5be1e5ebec7d5bd14f71427d1e84f3dd0314c0f7b2291e5b200ac8c7c3b92560405160405180910390a45050565b600080610f5e83610995565b90508073ffffffffffffffffffffffffffffffffffffffff168473ffffffffffffffffffffffffffffffffffffffff161480610fa05750610f9f8185610cb4565b5b80610fde57508373ffffffffffffffffffffffffffffffffffffffff16610fc6846105d5565b73ffffffffffffffffffffffffffffffffffffffff16145b91505092915050565b8273ffffffffffffffffffffffffffffffffffffffff1661100782610995565b73ffffffffffffffffffffffffffffffffffffffff161461105d576040517f08c379a00000000000000000000000000000000000000000000000000000000081526004016110549061351a565b60405180910390fd5b600073ffffffffffffffffffffffffffffffffffffffff168273ffffffffffffffffffffffffffffffffffffffff1614156110cd576040517f08c379a00000000000000000000000000000000000000000000000000000000081526004016110c4906135ac565b60405180910390fd5b6110da8383836001611917565b8273ffffffffffffffffffffffffffffffffffffffff166110fa82610995565b73ffffffffffffffffffffffffffffffffffffffff1614611150576040517f08c379a00000000000000000000000000000000000000000000000000000000081526004016111479061351a565b60405180910390fd5b6004600082815260200190815260200160002060006101000a81549073ffffffffffffffffffffffffffffffffffffffff02191690556001600360008573ffffffffffffffffffffffffffffffffffffffff1673ffffffffffffffffffffffffffffffffffffffff168152602001908152602001600020600082825403925050819055506001600360008473ffffffffffffffffffffffffffffffffffffffff1673ffffffffffffffffffffffffffffffffffffffff16815260200190815260200160002060008282540192505081905550816002600083815260200190815260200160002060006101000a81548173ffffffffffffffffffffffffffffffffffffffff021916908373ffffffffffffffffffffffffffffffffffffffff160217905550808273ffffffffffffffffffffffffffffffffffffffff168473ffffffffffffffffffffffffffffffffffffffff167fddf252ad1be2c89b69c2b068fc378daa952ba7f163c4a11628f55a4df523b3ef60405160405180910390a46112dc8383836001611929565b505050565b60006002600083815260200190815260200160002060009054906101000a900473ffffffffffffffffffffffffffffffffffffffff169050919050565b611326610e91565b73ffffffffffffffffffffffffffffffffffffffff16611344610ae8565b73ffffffffffffffffffffffffffffffffffffffff161461139a576040517f08c379a000000000000000000000000000000000000000000000000000000000815260040161139190613618565b60405180910390fd5b565b6000600b60009054906101000a900473ffffffffffffffffffffffffffffffffffffffff16905081600b60006101000a81548173ffffffffffffffffffffffffffffffffffffffff021916908373ffffffffffffffffffffffffffffffffffffffff1602179055508173ffffffffffffffffffffffffffffffffffffffff168173ffffffffffffffffffffffffffffffffffffffff167f8be0079c531659141344cd1fd0a4f28419497f9722a3daafe3b4186f6b6457e060405160405180910390a35050565b8173ffffffffffffffffffffffffffffffffffffffff168373ffffffffffffffffffffffffffffffffffffffff1614156114d1576040517f08c379a00000000000000000000000000000000000000000000000000000000081526004016114c890613684565b60405180910390fd5b80600560008573ffffffffffffffffffffffffffffffffffffffff1673ffffffffffffffffffffffffffffffffffffffff16815260200190815260200160002060008473ffffffffffffffffffffffffffffffffffffffff1673ffffffffffffffffffffffffffffffffffffffff16815260200190815260200160002060006101000a81548160ff0219169083151502179055508173ffffffffffffffffffffffffffffffffffffffff168373ffffffffffffffffffffffffffffffffffffffff167f17307eab39ab6107e8899845ad3d59bd9653f200f220920489ca2b5937696c31836040516115c291906128d6565b60405180910390a3505050565b6115da848484610fe7565b6115e68484848461192f565b611625576040517f08c379a000000000000000000000000000000000000000000000000000000000815260040161161c90613716565b60405180910390fd5b50505050565b606061163682610e46565b6000600a6000848152602001908152602001600020805461165690612fa0565b80601f016020809104026020016040519081016040528092919081815260200182805461168290612fa0565b80156116cf5780601f106116a4576101008083540402835291602001916116cf565b820191906000526020600020905b8154815290600101906020018083116116b257829003601f168201915b5050505050905060006116e0611ac6565b90506000815114156116f6578192505050611739565b60008251111561172b578082604051602001611713929190613772565b60405160208183030381529060405292505050611739565b61173484611add565b925050505b919050565b600081600001549050919050565b6001816000016000828254019250508190555050565b61177c828260405180602001604052806000815250611b45565b5050565b611789826118d6565b6117c8576040517f08c379a00000000000000000000000000000000000000000000000000000000081526004016117bf90613808565b60405180910390fd5b80600a600084815260200190815260200160002090805190602001906117ef929190612602565b505050565b60007f80ac58cd000000000000000000000000000000000000000000000000000000007bffffffffffffffffffffffffffffffffffffffffffffffffffffffff1916827bffffffffffffffffffffffffffffffffffffffffffffffffffffffff191614806118bf57507f5b5e139f000000000000000000000000000000000000000000000000000000007bffffffffffffffffffffffffffffffffffffffffffffffffffffffff1916827bffffffffffffffffffffffffffffffffffffffffffffffffffffffff1916145b806118cf57506118ce82611ba0565b5b9050919050565b60008073ffffffffffffffffffffffffffffffffffffffff166118f8836112e1565b73ffffffffffffffffffffffffffffffffffffffff1614159050919050565b61192384848484611c0a565b50505050565b50505050565b60006119508473ffffffffffffffffffffffffffffffffffffffff16611d6a565b15611ab9578373ffffffffffffffffffffffffffffffffffffffff1663150b7a02611979610e91565b8786866040518563ffffffff1660e01b815260040161199b949392919061387d565b602060405180830381600087803b1580156119b557600080fd5b505af19250505080156119e657506040513d601f19601f820116820180604052508101906119e391906138de565b60015b611a69573d8060008114611a16576040519150601f19603f3d011682016040523d82523d6000602084013e611a1b565b606091505b50600081511415611a61576040517f08c379a0000000000000000000000000000000000000000000000000000000008152600401611a5890613716565b60405180910390fd5b805181602001fd5b63150b7a0260e01b7bffffffffffffffffffffffffffffffffffffffffffffffffffffffff1916817bffffffffffffffffffffffffffffffffffffffffffffffffffffffff191614915050611abe565b600190505b949350505050565b606060405180602001604052806000815250905090565b6060611ae882610e46565b6000611af2611ac6565b90506000815111611b125760405180602001604052806000815250611b3d565b80611b1c84611d8d565b604051602001611b2d929190613772565b6040516020818303038152906040525b915050919050565b611b4f8383611e65565b611b5c600084848461192f565b611b9b576040517f08c379a0000000000000000000000000000000000000000000000000000000008152600401611b9290613716565b60405180910390fd5b505050565b60007f01ffc9a7000000000000000000000000000000000000000000000000000000007bffffffffffffffffffffffffffffffffffffffffffffffffffffffff1916827bffffffffffffffffffffffffffffffffffffffffffffffffffffffff1916149050919050565b611c1684848484612083565b6001811115611c5a576040517f08c379a0000000000000000000000000000000000000000000000000000000008152600401611c519061397d565b60405180910390fd5b6000829050600073ffffffffffffffffffffffffffffffffffffffff168573ffffffffffffffffffffffffffffffffffffffff161415611ca257611c9d816121a9565b611ce1565b8373ffffffffffffffffffffffffffffffffffffffff168573ffffffffffffffffffffffffffffffffffffffff1614611ce057611cdf85826121f2565b5b5b600073ffffffffffffffffffffffffffffffffffffffff168473ffffffffffffffffffffffffffffffffffffffff161415611d2457611d1f8161235f565b611d63565b8473ffffffffffffffffffffffffffffffffffffffff168473ffffffffffffffffffffffffffffffffffffffff1614611d6257611d618482612430565b5b5b5050505050565b6000808273ffffffffffffffffffffffffffffffffffffffff163b119050919050565b606060006001611d9c846124af565b01905060008167ffffffffffffffff811115611dbb57611dba612bdf565b5b6040519080825280601f01601f191660200182016040528015611ded5781602001600182028036833780820191505090505b509050600082602001820190505b600115611e5a578080600190039150507f3031323334353637383961626364656600000000000000000000000000000000600a86061a8153600a8581611e4457611e4361399d565b5b0494506000851415611e5557611e5a565b611dfb565b819350505050919050565b600073ffffffffffffffffffffffffffffffffffffffff168273ffffffffffffffffffffffffffffffffffffffff161415611ed5576040517f08c379a0000000000000000000000000000000000000000000000000000000008152600401611ecc90613a18565b60405180910390fd5b611ede816118d6565b15611f1e576040517f08c379a0000000000000000000000000000000000000000000000000000000008152600401611f1590613a84565b60405180910390fd5b611f2c600083836001611917565b611f35816118d6565b15611f75576040517f08c379a0000000000000000000000000000000000000000000000000000000008152600401611f6c90613a84565b60405180910390fd5b6001600360008473ffffffffffffffffffffffffffffffffffffffff1673ffffffffffffffffffffffffffffffffffffffff16815260200190815260200160002060008282540192505081905550816002600083815260200190815260200160002060006101000a81548173ffffffffffffffffffffffffffffffffffffffff021916908373ffffffffffffffffffffffffffffffffffffffff160217905550808273ffffffffffffffffffffffffffffffffffffffff16600073ffffffffffffffffffffffffffffffffffffffff167fddf252ad1be2c89b69c2b068fc378daa952ba7f163c4a11628f55a4df523b3ef60405160405180910390a461207f600083836001611929565b5050565b60018111156121a357600073ffffffffffffffffffffffffffffffffffffffff168473ffffffffffffffffffffffffffffffffffffffff16146121175780600360008673ffffffffffffffffffffffffffffffffffffffff1673ffffffffffffffffffffffffffffffffffffffff168152602001908152602001600020600082825461210f9190613aa4565b925050819055505b600073ffffffffffffffffffffffffffffffffffffffff168373ffffffffffffffffffffffffffffffffffffffff16146121a25780600360008573ffffffffffffffffffffffffffffffffffffffff1673ffffffffffffffffffffffffffffffffffffffff168152602001908152602001600020600082825461219a9190613ad8565b925050819055505b5b50505050565b6008805490506009600083815260200190815260200160002081905550600881908060018154018082558091505060019003906000526020600020016000909190919091505550565b600060016121ff84610a1c565b6122099190613aa4565b90506000600760008481526020019081526020016000205490508181146122ee576000600660008673ffffffffffffffffffffffffffffffffffffffff1673ffffffffffffffffffffffffffffffffffffffff168152602001908152602001600020600084815260200190815260200160002054905080600660008773ffffffffffffffffffffffffffffffffffffffff1673ffffffffffffffffffffffffffffffffffffffff168152602001908152602001600020600084815260200190815260200160002081905550816007600083815260200190815260200160002081905550505b6007600084815260200190815260200160002060009055600660008573ffffffffffffffffffffffffffffffffffffffff1673ffffffffffffffffffffffffffffffffffffffff16815260200190815260200160002060008381526020019081526020016000206000905550505050565b600060016008805490506123739190613aa4565b90506000600960008481526020019081526020016000205490506000600883815481106123a3576123a2612eca565b5b9060005260206000200154905080600883815481106123c5576123c4612eca565b5b90600052602060002001819055508160096000838152602001908152602001600020819055506009600085815260200190815260200160002060009055600880548061241457612413613b2e565b5b6001900381819060005260206000200160009055905550505050565b600061243b83610a1c565b905081600660008573ffffffffffffffffffffffffffffffffffffffff1673ffffffffffffffffffffffffffffffffffffffff168152602001908152602001600020600083815260200190815260200160002081905550806007600084815260200190815260200160002081905550505050565b600080600090507a184f03e93ff9f4daa797ed6e38ed64bf6a1f010000000000000000831061250d577a184f03e93ff9f4daa797ed6e38ed64bf6a1f01000000000000000083816125035761250261399d565b5b0492506040810190505b6d04ee2d6d415b85acef8100000000831061254a576d04ee2d6d415b85acef810000000083816125405761253f61399d565b5b0492506020810190505b662386f26fc10000831061257957662386f26fc10000838161256f5761256e61399d565b5b0492506010810190505b6305f5e10083106125a2576305f5e10083816125985761259761399d565b5b0492506008810190505b61271083106125c75761271083816125bd576125bc61399d565b5b0492506004810190505b606483106125ea57606483816125e0576125df61399d565b5b0492506002810190505b600a83106125f9576001810190505b80915050919050565b82805461260e90612fa0565b90600052602060002090601f0160209004810192826126305760008555612677565b82601f1061264957805160ff1916838001178555612677565b82800160010185558215612677579182015b8281111561267657825182559160200191906001019061265b565b5b5090506126849190612688565b5090565b5b808211156126a1576000816000905550600101612689565b5090565b600081519050919050565b600082825260208201905092915050565b6000819050602082019050919050565b600081519050919050565b600082825260208201905092915050565b60005b8381101561270b5780820151818401526020810190506126f0565b8381111561271a576000848401525b50505050565b6000601f19601f8301169050919050565b600061273c826126d1565b61274681856126dc565b93506127568185602086016126ed565b61275f81612720565b840191505092915050565b60006127768383612731565b905092915050565b6000602082019050919050565b6000612796826126a5565b6127a081856126b0565b9350836020820285016127b2856126c1565b8060005b858110156127ee57848403895281516127cf858261276a565b94506127da8361277e565b925060208a019950506001810190506127b6565b50829750879550505050505092915050565b6000602082019050818103600083015261281a818461278b565b905092915050565b6000604051905090565b600080fd5b600080fd5b60007fffffffff0000000000000000000000000000000000000000000000000000000082169050919050565b61286b81612836565b811461287657600080fd5b50565b60008135905061288881612862565b92915050565b6000602082840312156128a4576128a361282c565b5b60006128b284828501612879565b91505092915050565b60008115159050919050565b6128d0816128bb565b82525050565b60006020820190506128eb60008301846128c7565b92915050565b600082825260208201905092915050565b600061290d826126d1565b61291781856128f1565b93506129278185602086016126ed565b61293081612720565b840191505092915050565b600060208201905081810360008301526129558184612902565b905092915050565b6000819050919050565b6129708161295d565b811461297b57600080fd5b50565b60008135905061298d81612967565b92915050565b6000602082840312156129a9576129a861282c565b5b60006129b78482850161297e565b91505092915050565b600073ffffffffffffffffffffffffffffffffffffffff82169050919050565b60006129eb826129c0565b9050919050565b6129fb816129e0565b82525050565b6000602082019050612a1660008301846129f2565b92915050565b612a25816129e0565b8114612a3057600080fd5b50565b600081359050612a4281612a1c565b92915050565b60008060408385031215612a5f57612a5e61282c565b5b6000612a6d85828601612a33565b9250506020612a7e8582860161297e565b9150509250929050565b600060208284031215612a9e57612a9d61282c565b5b6000612aac84828501612a33565b91505092915050565b612abe8161295d565b82525050565b6000602082019050612ad96000830184612ab5565b92915050565b600080600060608486031215612af857612af761282c565b5b6000612b0686828701612a33565b9350506020612b1786828701612a33565b9250506040612b288682870161297e565b9150509250925092565b600060ff82169050919050565b612b4881612b32565b82525050565b6000602082019050612b636000830184612b3f565b92915050565b612b72816128bb565b8114612b7d57600080fd5b50565b600081359050612b8f81612b69565b92915050565b60008060408385031215612bac57612bab61282c565b5b6000612bba85828601612a33565b9250506020612bcb85828601612b80565b9150509250929050565b600080fd5b600080fd5b7f4e487b7100000000000000000000000000000000000000000000000000000000600052604160045260246000fd5b612c1782612720565b810181811067ffffffffffffffff82111715612c3657612c35612bdf565b5b80604052505050565b6000612c49612822565b9050612c558282612c0e565b919050565b600067ffffffffffffffff821115612c7557612c74612bdf565b5b612c7e82612720565b9050602081019050919050565b82818337600083830152505050565b6000612cad612ca884612c5a565b612c3f565b905082815260208101848484011115612cc957612cc8612bda565b5b612cd4848285612c8b565b509392505050565b600082601f830112612cf157612cf0612bd5565b5b8135612d01848260208601612c9a565b91505092915050565b60008060008060808587031215612d2457612d2361282c565b5b6000612d3287828801612a33565b9450506020612d4387828801612a33565b9350506040612d548782880161297e565b925050606085013567ffffffffffffffff811115612d7557612d74612831565b5b612d8187828801612cdc565b91505092959194509250565b600067ffffffffffffffff821115612da857612da7612bdf565b5b612db182612720565b9050602081019050919050565b6000612dd1612dcc84612d8d565b612c3f565b905082815260208101848484011115612ded57612dec612bda565b5b612df8848285612c8b565b509392505050565b600082601f830112612e1557612e14612bd5565b5b8135612e25848260208601612dbe565b91505092915050565b60008060408385031215612e4557612e4461282c565b5b6000612e5385828601612a33565b925050602083013567ffffffffffffffff811115612e7457612e73612831565b5b612e8085828601612e00565b9150509250929050565b60008060408385031215612ea157612ea061282c565b5b6000612eaf85828601612a33565b9250506020612ec085828601612a33565b9150509250929050565b7f4e487b7100000000000000000000000000000000000000000000000000000000600052603260045260246000fd5b7f4e487b7100000000000000000000000000000000000000000000000000000000600052601160045260246000fd5b6000612f338261295d565b91507fffffffffffffffffffffffffffffffffffffffffffffffffffffffffffffffff821415612f6657612f65612ef9565b5b600182019050919050565b7f4e487b7100000000000000000000000000000000000000000000000000000000600052602260045260246000fd5b60006002820490506001821680612fb857607f821691505b60208210811415612fcc57612fcb612f71565b5b50919050565b7f4552433732313a20617070726f76616c20746f2063757272656e74206f776e6560008201527f7200000000000000000000000000000000000000000000000000000000000000602082015250565b600061302e6021836128f1565b915061303982612fd2565b604082019050919050565b6000602082019050818103600083015261305d81613021565b9050919050565b7f4552433732313a20617070726f76652063616c6c6572206973206e6f7420746f60008201527f6b656e206f776e6572206f7220617070726f76656420666f7220616c6c000000602082015250565b60006130c0603d836128f1565b91506130cb82613064565b604082019050919050565b600060208201905081810360008301526130ef816130b3565b9050919050565b7f4552433732313a2063616c6c6572206973206e6f7420746f6b656e206f776e6560008201527f72206f7220617070726f76656400000000000000000000000000000000000000602082015250565b6000613152602d836128f1565b915061315d826130f6565b604082019050919050565b6000602082019050818103600083015261318181613145565b9050919050565b7f455243373231456e756d657261626c653a206f776e657220696e646578206f7560008201527f74206f6620626f756e6473000000000000000000000000000000000000000000602082015250565b60006131e4602b836128f1565b91506131ef82613188565b604082019050919050565b60006020820190508181036000830152613213816131d7565b9050919050565b7f455243373231456e756d657261626c653a20676c6f62616c20696e646578206f60008201527f7574206f6620626f756e64730000000000000000000000000000000000000000602082015250565b6000613276602c836128f1565b91506132818261321a565b604082019050919050565b600060208201905081810360008301526132a581613269565b9050919050565b7f4552433732313a20696e76616c696420746f6b656e2049440000000000000000600082015250565b60006132e26018836128f1565b91506132ed826132ac565b602082019050919050565b60006020820190508181036000830152613311816132d5565b9050919050565b7f4552433732313a2061646472657373207a65726f206973206e6f74206120766160008201527f6c6964206f776e65720000000000000000000000000000000000000000000000602082015250565b60006133746029836128f1565b915061337f82613318565b604082019050919050565b600060208201905081810360008301526133a381613367565b9050919050565b7f4d6178696d756d20537570706c79204c696d6974205265616368656400000000600082015250565b60006133e0601c836128f1565b91506133eb826133aa565b602082019050919050565b6000602082019050818103600083015261340f816133d3565b9050919050565b7f4f776e61626c653a206e6577206f776e657220697320746865207a65726f206160008201527f6464726573730000000000000000000000000000000000000000000000000000602082015250565b60006134726026836128f1565b915061347d82613416565b604082019050919050565b600060208201905081810360008301526134a181613465565b9050919050565b7f4552433732313a207472616e736665722066726f6d20696e636f72726563742060008201527f6f776e6572000000000000000000000000000000000000000000000000000000602082015250565b60006135046025836128f1565b915061350f826134a8565b604082019050919050565b60006020820190508181036000830152613533816134f7565b9050919050565b7f4552433732313a207472616e7366657220746f20746865207a65726f2061646460008201527f7265737300000000000000000000000000000000000000000000000000000000602082015250565b60006135966024836128f1565b91506135a18261353a565b604082019050919050565b600060208201905081810360008301526135c581613589565b9050919050565b7f4f776e61626c653a2063616c6c6572206973206e6f7420746865206f776e6572600082015250565b60006136026020836128f1565b915061360d826135cc565b602082019050919050565b60006020820190508181036000830152613631816135f5565b9050919050565b7f4552433732313a20617070726f766520746f2063616c6c657200000000000000600082015250565b600061366e6019836128f1565b915061367982613638565b602082019050919050565b6000602082019050818103600083015261369d81613661565b9050919050565b7f4552433732313a207472616e7366657220746f206e6f6e20455243373231526560008201527f63656976657220696d706c656d656e7465720000000000000000000000000000602082015250565b60006137006032836128f1565b915061370b826136a4565b604082019050919050565b6000602082019050818103600083015261372f816136f3565b9050919050565b600081905092915050565b600061374c826126d1565b6137568185613736565b93506137668185602086016126ed565b80840191505092915050565b600061377e8285613741565b915061378a8284613741565b91508190509392505050565b7f45524337323155524953746f726167653a2055524920736574206f66206e6f6e60008201527f6578697374656e7420746f6b656e000000000000000000000000000000000000602082015250565b60006137f2602e836128f1565b91506137fd82613796565b604082019050919050565b60006020820190508181036000830152613821816137e5565b9050919050565b600081519050919050565b600082825260208201905092915050565b600061384f82613828565b6138598185613833565b93506138698185602086016126ed565b61387281612720565b840191505092915050565b600060808201905061389260008301876129f2565b61389f60208301866129f2565b6138ac6040830185612ab5565b81810360608301526138be8184613844565b905095945050505050565b6000815190506138d881612862565b92915050565b6000602082840312156138f4576138f361282c565b5b6000613902848285016138c9565b91505092915050565b7f455243373231456e756d657261626c653a20636f6e736563757469766520747260008201527f616e7366657273206e6f7420737570706f727465640000000000000000000000602082015250565b60006139676035836128f1565b91506139728261390b565b604082019050919050565b600060208201905081810360008301526139968161395a565b9050919050565b7f4e487b7100000000000000000000000000000000000000000000000000000000600052601260045260246000fd5b7f4552433732313a206d696e7420746f20746865207a65726f2061646472657373600082015250565b6000613a026020836128f1565b9150613a0d826139cc565b602082019050919050565b60006020820190508181036000830152613a31816139f5565b9050919050565b7f4552433732313a20746f6b656e20616c7265616479206d696e74656400000000600082015250565b6000613a6e601c836128f1565b9150613a7982613a38565b602082019050919050565b60006020820190508181036000830152613a9d81613a61565b9050919050565b6000613aaf8261295d565b9150613aba8361295d565b925082821015613acd57613acc612ef9565b5b828203905092915050565b6000613ae38261295d565b9150613aee8361295d565b9250827fffffffffffffffffffffffffffffffffffffffffffffffffffffffffffffffff03821115613b2357613b22612ef9565b5b828201905092915050565b7f4e487b7100000000000000000000000000000000000000000000000000000000600052603160045260246000fdfea264697066735822122063ef5590a436f44edfef6ae7eb3cf67a7186978b9fd579133e411bedf006319f64736f6c63430008090033",
  "linkReferences": {},
  "deployedLinkReferences": {}
}