{
  "_format": "hh-sol-artifact-1",
  "contractName": "NFTCollection",
  "sourceName": "contracts/NFTCollection.sol",
  "abi": [
    {
      "inputs": [
        {
          "internalType": "string",
          "name": "_name",
          "type": "string"
        },
        {
          "internalType": "string",
          "name": "_symbol",
          "type": "string"
        }
      ],
      "stateMutability": "nonpayable",
      "type": "constructor"
    },
    {
      "anonymous": false,
      "inputs": [
        {
          "indexed": true,
          "internalType": "address",
          "name": "owner",
          "type": "address"
        },
        {
          "indexed": true,
          "internalType": "address",
          "name": "approved",
          "type": "address"
        },
        {
          "indexed": true,
          "internalType": "uint256",
          "name": "tokenId",
          "type": "uint256"
        }
      ],
      "name": "Approval",
      "type": "event"
    },
    {
      "anonymous": false,
      "inputs": [
        {
          "indexed": true,
          "internalType": "address",
          "name": "owner",
          "type": "address"
        },
        {
          "indexed": true,
          "internalType": "address",
          "name": "operator",
          "type": "address"
        },
        {
          "indexed": false,
          "internalType": "bool",
          "name": "approved",
          "type": "bool"
        }
      ],
      "name": "ApprovalForAll",
      "type": "event"
    },
    {
      "anonymous": false,
      "inputs": [
        {
          "indexed": true,
          "internalType": "address",
          "name": "previousOwner",
          "type": "address"
        },
        {
          "indexed": true,
          "internalType": "address",
          "name": "newOwner",
          "type": "address"
        }
      ],
      "name": "OwnershipTransferred",
      "type": "event"
    },
    {
      "anonymous": false,
      "inputs": [
        {
          "indexed": true,
          "internalType": "address",
          "name": "from",
          "type": "address"
        },
        {
          "indexed": true,
          "internalType": "address",
          "name": "to",
          "type": "address"
        },
        {
          "indexed": true,
          "internalType": "uint256",
          "name": "tokenId",
          "type": "uint256"
        }
      ],
      "name": "Transfer",
      "type": "event"
    },
    {
      "inputs": [],
      "name": "MAX_SUPPLY",
      "outputs": [
        {
          "internalType": "uint8",
          "name": "",
          "type": "uint8"
        }
      ],
      "stateMutability": "view",
      "type": "function"
    },
    {
      "inputs": [
        {
          "internalType": "address",
          "name": "to",
          "type": "address"
        },
        {
          "internalType": "uint256",
          "name": "tokenId",
          "type": "uint256"
        }
      ],
      "name": "approve",
      "outputs": [],
      "stateMutability": "nonpayable",
      "type": "function"
    },
    {
      "inputs": [
        {
          "internalType": "address",
          "name": "owner",
          "type": "address"
        }
      ],
      "name": "balanceOf",
      "outputs": [
        {
          "internalType": "uint256",
          "name": "",
          "type": "uint256"
        }
      ],
      "stateMutability": "view",
      "type": "function"
    },
    {
      "inputs": [
        {
          "internalType": "uint256",
          "name": "tokenId",
          "type": "uint256"
        }
      ],
      "name": "getApproved",
      "outputs": [
        {
          "internalType": "address",
          "name": "",
          "type": "address"
        }
      ],
      "stateMutability": "view",
      "type": "function"
    },
    {
      "inputs": [
        {
          "internalType": "address",
          "name": "owner",
          "type": "address"
        },
        {
          "internalType": "address",
          "name": "operator",
          "type": "address"
        }
      ],
      "name": "isApprovedForAll",
      "outputs": [
        {
          "internalType": "bool",
          "name": "",
          "type": "bool"
        }
      ],
      "stateMutability": "view",
      "type": "function"
    },
    {
      "inputs": [],
      "name": "name",
      "outputs": [
        {
          "internalType": "string",
          "name": "",
          "type": "string"
        }
      ],
      "stateMutability": "view",
      "type": "function"
    },
    {
      "inputs": [],
      "name": "owner",
      "outputs": [
        {
          "internalType": "address",
          "name": "",
          "type": "address"
        }
      ],
      "stateMutability": "view",
      "type": "function"
    },
    {
      "inputs": [
        {
          "internalType": "uint256",
          "name": "tokenId",
          "type": "uint256"
        }
      ],
      "name": "ownerOf",
      "outputs": [
        {
          "internalType": "address",
          "name": "",
          "type": "address"
        }
      ],
      "stateMutability": "view",
      "type": "function"
    },
    {
      "inputs": [],
      "name": "renounceOwnership",
      "outputs": [],
      "stateMutability": "nonpayable",
      "type": "function"
    },
    {
      "inputs": [
        {
          "internalType": "address",
          "name": "to",
          "type": "address"
        },
        {
          "internalType": "string",
          "name": "uri",
          "type": "string"
        }
      ],
      "name": "safeMint",
      "outputs": [],
      "stateMutability": "nonpayable",
      "type": "function"
    },
    {
      "inputs": [
        {
          "internalType": "address",
          "name": "from",
          "type": "address"
        },
        {
          "internalType": "address",
          "name": "to",
          "type": "address"
        },
        {
          "internalType": "uint256",
          "name": "tokenId",
          "type": "uint256"
        }
      ],
      "name": "safeTransferFrom",
      "outputs": [],
      "stateMutability": "nonpayable",
      "type": "function"
    },
    {
      "inputs": [
        {
          "internalType": "address",
          "name": "from",
          "type": "address"
        },
        {
          "internalType": "address",
          "name": "to",
          "type": "address"
        },
        {
          "internalType": "uint256",
          "name": "tokenId",
          "type": "uint256"
        },
        {
          "internalType": "bytes",
          "name": "data",
          "type": "bytes"
        }
      ],
      "name": "safeTransferFrom",
      "outputs": [],
      "stateMutability": "nonpayable",
      "type": "function"
    },
    {
      "inputs": [
        {
          "internalType": "address",
          "name": "operator",
          "type": "address"
        },
        {
          "internalType": "bool",
          "name": "approved",
          "type": "bool"
        }
      ],
      "name": "setApprovalForAll",
      "outputs": [],
      "stateMutability": "nonpayable",
      "type": "function"
    },
    {
      "inputs": [
        {
          "internalType": "bytes4",
          "name": "interfaceId",
          "type": "bytes4"
        }
      ],
      "name": "supportsInterface",
      "outputs": [
        {
          "internalType": "bool",
          "name": "",
          "type": "bool"
        }
      ],
      "stateMutability": "view",
      "type": "function"
    },
    {
      "inputs": [],
      "name": "symbol",
      "outputs": [
        {
          "internalType": "string",
          "name": "",
          "type": "string"
        }
      ],
      "stateMutability": "view",
      "type": "function"
    },
    {
      "inputs": [
        {
          "internalType": "uint256",
          "name": "index",
          "type": "uint256"
        }
      ],
      "name": "tokenByIndex",
      "outputs": [
        {
          "internalType": "uint256",
          "name": "",
          "type": "uint256"
        }
      ],
      "stateMutability": "view",
      "type": "function"
    },
    {
      "inputs": [
        {
          "internalType": "address",
          "name": "owner",
          "type": "address"
        },
        {
          "internalType": "uint256",
          "name": "index",
          "type": "uint256"
        }
      ],
      "name": "tokenOfOwnerByIndex",
      "outputs": [
        {
          "internalType": "uint256",
          "name": "",
          "type": "uint256"
        }
      ],
      "stateMutability": "view",
      "type": "function"
    },
    {
      "inputs": [
        {
          "internalType": "uint256",
          "name": "tokenId",
          "type": "uint256"
        }
      ],
      "name": "tokenURI",
      "outputs": [
        {
          "internalType": "string",
          "name": "",
          "type": "string"
        }
      ],
      "stateMutability": "view",
      "type": "function"
    },
    {
      "inputs": [],
      "name": "totalSupply",
      "outputs": [
        {
          "internalType": "uint256",
          "name": "",
          "type": "uint256"
        }
      ],
      "stateMutability": "view",
      "type": "function"
    },
    {
      "inputs": [
        {
          "internalType": "address",
          "name": "from",
          "type": "address"
        },
        {
          "internalType": "address",
          "name": "to",
          "type": "address"
        },
        {
          "internalType": "uint256",
          "name": "tokenId",
          "type": "uint256"
        }
      ],
      "name": "transferFrom",
      "outputs": [],
      "stateMutability": "nonpayable",
      "type": "function"
    },
    {
      "inputs": [
        {
          "internalType": "address",
          "name": "newOwner",
          "type": "address"
        }
      ],
      "name": "transferOwnership",
      "outputs": [],
      "stateMutability": "nonpayable",
      "type": "function"
    }
  ],
  "bytecode": "0x60806040523480156200001157600080fd5b5060405162003cfb38038062003cfb8339818101604052810190620000379190620003b0565b818181600090805190602001906200005192919062000163565b5080600190805190602001906200006a92919062000163565b5050506200008d620000816200009560201b60201c565b6200009d60201b60201c565b50506200049a565b600033905090565b6000600b60009054906101000a900473ffffffffffffffffffffffffffffffffffffffff16905081600b60006101000a81548173ffffffffffffffffffffffffffffffffffffffff021916908373ffffffffffffffffffffffffffffffffffffffff1602179055508173ffffffffffffffffffffffffffffffffffffffff168173ffffffffffffffffffffffffffffffffffffffff167f8be0079c531659141344cd1fd0a4f28419497f9722a3daafe3b4186f6b6457e060405160405180910390a35050565b828054620001719062000464565b90600052602060002090601f016020900481019282620001955760008555620001e1565b82601f10620001b057805160ff1916838001178555620001e1565b82800160010185558215620001e1579182015b82811115620001e0578251825591602001919060010190620001c3565b5b509050620001f09190620001f4565b5090565b5b808211156200020f576000816000905550600101620001f5565b5090565b6000604051905090565b600080fd5b600080fd5b600080fd5b600080fd5b6000601f19601f8301169050919050565b7f4e487b7100000000000000000000000000000000000000000000000000000000600052604160045260246000fd5b6200027c8262000231565b810181811067ffffffffffffffff821117156200029e576200029d62000242565b5b80604052505050565b6000620002b362000213565b9050620002c1828262000271565b919050565b600067ffffffffffffffff821115620002e457620002e362000242565b5b620002ef8262000231565b9050602081019050919050565b60005b838110156200031c578082015181840152602081019050620002ff565b838111156200032c576000848401525b50505050565b6000620003496200034384620002c6565b620002a7565b9050828152602081018484840111156200036857620003676200022c565b5b62000375848285620002fc565b509392505050565b600082601f83011262000395576200039462000227565b5b8151620003a784826020860162000332565b91505092915050565b60008060408385031215620003ca57620003c96200021d565b5b600083015167ffffffffffffffff811115620003eb57620003ea62000222565b5b620003f9858286016200037d565b925050602083015167ffffffffffffffff8111156200041d576200041c62000222565b5b6200042b858286016200037d565b9150509250929050565b7f4e487b7100000000000000000000000000000000000000000000000000000000600052602260045260246000fd5b600060028204905060018216806200047d57607f821691505b6020821081141562000494576200049362000435565b5b50919050565b61385180620004aa6000396000f3fe608060405234801561001057600080fd5b50600436106101375760003560e01c80636352211e116100b8578063a22cb4651161007c578063a22cb46514610350578063b88d4fde1461036c578063c87b56dd14610388578063d204c45e146103b8578063e985e9c5146103d4578063f2fde38b1461040457610137565b80636352211e146102aa57806370a08231146102da578063715018a61461030a5780638da5cb5b1461031457806395d89b411461033257610137565b806323b872dd116100ff57806323b872dd146101f45780632f745c591461021057806332cb6b0c1461024057806342842e0e1461025e5780634f6ccce71461027a57610137565b806301ffc9a71461013c57806306fdde031461016c578063081812fc1461018a578063095ea7b3146101ba57806318160ddd146101d6575b600080fd5b61015660048036038101906101519190612546565b610420565b604051610163919061258e565b60405180910390f35b610174610432565b6040516101819190612642565b60405180910390f35b6101a4600480360381019061019f919061269a565b6104c4565b6040516101b19190612708565b60405180910390f35b6101d460048036038101906101cf919061274f565b61050a565b005b6101de610622565b6040516101eb919061279e565b60405180910390f35b61020e600480360381019061020991906127b9565b61062f565b005b61022a6004803603810190610225919061274f565b61068f565b604051610237919061279e565b60405180910390f35b610248610734565b6040516102559190612828565b60405180910390f35b610278600480360381019061027391906127b9565b610739565b005b610294600480360381019061028f919061269a565b610759565b6040516102a1919061279e565b60405180910390f35b6102c460048036038101906102bf919061269a565b6107ca565b6040516102d19190612708565b60405180910390f35b6102f460048036038101906102ef9190612843565b610851565b604051610301919061279e565b60405180910390f35b610312610909565b005b61031c61091d565b6040516103299190612708565b60405180910390f35b61033a610947565b6040516103479190612642565b60405180910390f35b61036a6004803603810190610365919061289c565b6109d9565b005b61038660048036038101906103819190612a11565b6109ef565b005b6103a2600480360381019061039d919061269a565b610a51565b6040516103af9190612642565b60405180910390f35b6103d260048036038101906103cd9190612b35565b610a63565b005b6103ee60048036038101906103e99190612b91565b610ae9565b6040516103fb919061258e565b60405180910390f35b61041e60048036038101906104199190612843565b610b7d565b005b600061042b82610c01565b9050919050565b60606000805461044190612c00565b80601f016020809104026020016040519081016040528092919081815260200182805461046d90612c00565b80156104ba5780601f1061048f576101008083540402835291602001916104ba565b820191906000526020600020905b81548152906001019060200180831161049d57829003601f168201915b5050505050905090565b60006104cf82610c7b565b6004600083815260200190815260200160002060009054906101000a900473ffffffffffffffffffffffffffffffffffffffff169050919050565b6000610515826107ca565b90508073ffffffffffffffffffffffffffffffffffffffff168373ffffffffffffffffffffffffffffffffffffffff161415610586576040517f08c379a000000000000000000000000000000000000000000000000000000000815260040161057d90612ca4565b60405180910390fd5b8073ffffffffffffffffffffffffffffffffffffffff166105a5610cc6565b73ffffffffffffffffffffffffffffffffffffffff1614806105d457506105d3816105ce610cc6565b610ae9565b5b610613576040517f08c379a000000000000000000000000000000000000000000000000000000000815260040161060a90612d36565b60405180910390fd5b61061d8383610cce565b505050565b6000600880549050905090565b61064061063a610cc6565b82610d87565b61067f576040517f08c379a000000000000000000000000000000000000000000000000000000000815260040161067690612dc8565b60405180910390fd5b61068a838383610e1c565b505050565b600061069a83610851565b82106106db576040517f08c379a00000000000000000000000000000000000000000000000000000000081526004016106d290612e5a565b60405180910390fd5b600660008473ffffffffffffffffffffffffffffffffffffffff1673ffffffffffffffffffffffffffffffffffffffff168152602001908152602001600020600083815260200190815260200160002054905092915050565b606481565b610754838383604051806020016040528060008152506109ef565b505050565b6000610763610622565b82106107a4576040517f08c379a000000000000000000000000000000000000000000000000000000000815260040161079b90612eec565b60405180910390fd5b600882815481106107b8576107b7612f0c565b5b90600052602060002001549050919050565b6000806107d683611116565b9050600073ffffffffffffffffffffffffffffffffffffffff168173ffffffffffffffffffffffffffffffffffffffff161415610848576040517f08c379a000000000000000000000000000000000000000000000000000000000815260040161083f90612f87565b60405180910390fd5b80915050919050565b60008073ffffffffffffffffffffffffffffffffffffffff168273ffffffffffffffffffffffffffffffffffffffff1614156108c2576040517f08c379a00000000000000000000000000000000000000000000000000000000081526004016108b990613019565b60405180910390fd5b600360008373ffffffffffffffffffffffffffffffffffffffff1673ffffffffffffffffffffffffffffffffffffffff168152602001908152602001600020549050919050565b610911611153565b61091b60006111d1565b565b6000600b60009054906101000a900473ffffffffffffffffffffffffffffffffffffffff16905090565b60606001805461095690612c00565b80601f016020809104026020016040519081016040528092919081815260200182805461098290612c00565b80156109cf5780601f106109a4576101008083540402835291602001916109cf565b820191906000526020600020905b8154815290600101906020018083116109b257829003601f168201915b5050505050905090565b6109eb6109e4610cc6565b8383611297565b5050565b610a006109fa610cc6565b83610d87565b610a3f576040517f08c379a0000000000000000000000000000000000000000000000000000000008152600401610a3690612dc8565b60405180910390fd5b610a4b84848484611404565b50505050565b6060610a5c82611460565b9050919050565b610a6b611153565b606460ff16610a78610622565b10610ab8576040517f08c379a0000000000000000000000000000000000000000000000000000000008152600401610aaf90613085565b60405180910390fd5b6000610ac4600c611573565b9050610ad0600c611581565b610ada8382611597565b610ae481836115b5565b505050565b6000600560008473ffffffffffffffffffffffffffffffffffffffff1673ffffffffffffffffffffffffffffffffffffffff16815260200190815260200160002060008373ffffffffffffffffffffffffffffffffffffffff1673ffffffffffffffffffffffffffffffffffffffff16815260200190815260200160002060009054906101000a900460ff16905092915050565b610b85611153565b600073ffffffffffffffffffffffffffffffffffffffff168173ffffffffffffffffffffffffffffffffffffffff161415610bf5576040517f08c379a0000000000000000000000000000000000000000000000000000000008152600401610bec90613117565b60405180910390fd5b610bfe816111d1565b50565b60007f780e9d63000000000000000000000000000000000000000000000000000000007bffffffffffffffffffffffffffffffffffffffffffffffffffffffff1916827bffffffffffffffffffffffffffffffffffffffffffffffffffffffff19161480610c745750610c7382611629565b5b9050919050565b610c848161170b565b610cc3576040517f08c379a0000000000000000000000000000000000000000000000000000000008152600401610cba90612f87565b60405180910390fd5b50565b600033905090565b816004600083815260200190815260200160002060006101000a81548173ffffffffffffffffffffffffffffffffffffffff021916908373ffffffffffffffffffffffffffffffffffffffff160217905550808273ffffffffffffffffffffffffffffffffffffffff16610d41836107ca565b73ffffffffffffffffffffffffffffffffffffffff167f8c5be1e5ebec7d5bd14f71427d1e84f3dd0314c0f7b2291e5b200ac8c7c3b92560405160405180910390a45050565b600080610d93836107ca565b90508073ffffffffffffffffffffffffffffffffffffffff168473ffffffffffffffffffffffffffffffffffffffff161480610dd55750610dd48185610ae9565b5b80610e1357508373ffffffffffffffffffffffffffffffffffffffff16610dfb846104c4565b73ffffffffffffffffffffffffffffffffffffffff16145b91505092915050565b8273ffffffffffffffffffffffffffffffffffffffff16610e3c826107ca565b73ffffffffffffffffffffffffffffffffffffffff1614610e92576040517f08c379a0000000000000000000000000000000000000000000000000000000008152600401610e89906131a9565b60405180910390fd5b600073ffffffffffffffffffffffffffffffffffffffff168273ffffffffffffffffffffffffffffffffffffffff161415610f02576040517f08c379a0000000000000000000000000000000000000000000000000000000008152600401610ef99061323b565b60405180910390fd5b610f0f838383600161174c565b8273ffffffffffffffffffffffffffffffffffffffff16610f2f826107ca565b73ffffffffffffffffffffffffffffffffffffffff1614610f85576040517f08c379a0000000000000000000000000000000000000000000000000000000008152600401610f7c906131a9565b60405180910390fd5b6004600082815260200190815260200160002060006101000a81549073ffffffffffffffffffffffffffffffffffffffff02191690556001600360008573ffffffffffffffffffffffffffffffffffffffff1673ffffffffffffffffffffffffffffffffffffffff168152602001908152602001600020600082825403925050819055506001600360008473ffffffffffffffffffffffffffffffffffffffff1673ffffffffffffffffffffffffffffffffffffffff16815260200190815260200160002060008282540192505081905550816002600083815260200190815260200160002060006101000a81548173ffffffffffffffffffffffffffffffffffffffff021916908373ffffffffffffffffffffffffffffffffffffffff160217905550808273ffffffffffffffffffffffffffffffffffffffff168473ffffffffffffffffffffffffffffffffffffffff167fddf252ad1be2c89b69c2b068fc378daa952ba7f163c4a11628f55a4df523b3ef60405160405180910390a4611111838383600161175e565b505050565b60006002600083815260200190815260200160002060009054906101000a900473ffffffffffffffffffffffffffffffffffffffff169050919050565b61115b610cc6565b73ffffffffffffffffffffffffffffffffffffffff1661117961091d565b73ffffffffffffffffffffffffffffffffffffffff16146111cf576040517f08c379a00000000000000000000000000000000000000000000000000000000081526004016111c6906132a7565b60405180910390fd5b565b6000600b60009054906101000a900473ffffffffffffffffffffffffffffffffffffffff16905081600b60006101000a81548173ffffffffffffffffffffffffffffffffffffffff021916908373ffffffffffffffffffffffffffffffffffffffff1602179055508173ffffffffffffffffffffffffffffffffffffffff168173ffffffffffffffffffffffffffffffffffffffff167f8be0079c531659141344cd1fd0a4f28419497f9722a3daafe3b4186f6b6457e060405160405180910390a35050565b8173ffffffffffffffffffffffffffffffffffffffff168373ffffffffffffffffffffffffffffffffffffffff161415611306576040517f08c379a00000000000000000000000000000000000000000000000000000000081526004016112fd90613313565b60405180910390fd5b80600560008573ffffffffffffffffffffffffffffffffffffffff1673ffffffffffffffffffffffffffffffffffffffff16815260200190815260200160002060008473ffffffffffffffffffffffffffffffffffffffff1673ffffffffffffffffffffffffffffffffffffffff16815260200190815260200160002060006101000a81548160ff0219169083151502179055508173ffffffffffffffffffffffffffffffffffffffff168373ffffffffffffffffffffffffffffffffffffffff167f17307eab39ab6107e8899845ad3d59bd9653f200f220920489ca2b5937696c31836040516113f7919061258e565b60405180910390a3505050565b61140f848484610e1c565b61141b84848484611764565b61145a576040517f08c379a0000000000000000000000000000000000000000000000000000000008152600401611451906133a5565b60405180910390fd5b50505050565b606061146b82610c7b565b6000600a6000848152602001908152602001600020805461148b90612c00565b80601f01602080910402602001604051908101604052809291908181526020018280546114b790612c00565b80156115045780601f106114d957610100808354040283529160200191611504565b820191906000526020600020905b8154815290600101906020018083116114e757829003601f168201915b5050505050905060006115156118fb565b905060008151141561152b57819250505061156e565b600082511115611560578082604051602001611548929190613401565b6040516020818303038152906040529250505061156e565b61156984611912565b925050505b919050565b600081600001549050919050565b6001816000016000828254019250508190555050565b6115b182826040518060200160405280600081525061197a565b5050565b6115be8261170b565b6115fd576040517f08c379a00000000000000000000000000000000000000000000000000000000081526004016115f490613497565b60405180910390fd5b80600a60008481526020019081526020016000209080519060200190611624929190612437565b505050565b60007f80ac58cd000000000000000000000000000000000000000000000000000000007bffffffffffffffffffffffffffffffffffffffffffffffffffffffff1916827bffffffffffffffffffffffffffffffffffffffffffffffffffffffff191614806116f457507f5b5e139f000000000000000000000000000000000000000000000000000000007bffffffffffffffffffffffffffffffffffffffffffffffffffffffff1916827bffffffffffffffffffffffffffffffffffffffffffffffffffffffff1916145b806117045750611703826119d5565b5b9050919050565b60008073ffffffffffffffffffffffffffffffffffffffff1661172d83611116565b73ffffffffffffffffffffffffffffffffffffffff1614159050919050565b61175884848484611a3f565b50505050565b50505050565b60006117858473ffffffffffffffffffffffffffffffffffffffff16611b9f565b156118ee578373ffffffffffffffffffffffffffffffffffffffff1663150b7a026117ae610cc6565b8786866040518563ffffffff1660e01b81526004016117d0949392919061350c565b602060405180830381600087803b1580156117ea57600080fd5b505af192505050801561181b57506040513d601f19601f82011682018060405250810190611818919061356d565b60015b61189e573d806000811461184b576040519150601f19603f3d011682016040523d82523d6000602084013e611850565b606091505b50600081511415611896576040517f08c379a000000000000000000000000000000000000000000000000000000000815260040161188d906133a5565b60405180910390fd5b805181602001fd5b63150b7a0260e01b7bffffffffffffffffffffffffffffffffffffffffffffffffffffffff1916817bffffffffffffffffffffffffffffffffffffffffffffffffffffffff1916149150506118f3565b600190505b949350505050565b606060405180602001604052806000815250905090565b606061191d82610c7b565b60006119276118fb565b905060008151116119475760405180602001604052806000815250611972565b8061195184611bc2565b604051602001611962929190613401565b6040516020818303038152906040525b915050919050565b6119848383611c9a565b6119916000848484611764565b6119d0576040517f08c379a00000000000000000000000000000000000000000000000000000000081526004016119c7906133a5565b60405180910390fd5b505050565b60007f01ffc9a7000000000000000000000000000000000000000000000000000000007bffffffffffffffffffffffffffffffffffffffffffffffffffffffff1916827bffffffffffffffffffffffffffffffffffffffffffffffffffffffff1916149050919050565b611a4b84848484611eb8565b6001811115611a8f576040517f08c379a0000000000000000000000000000000000000000000000000000000008152600401611a869061360c565b60405180910390fd5b6000829050600073ffffffffffffffffffffffffffffffffffffffff168573ffffffffffffffffffffffffffffffffffffffff161415611ad757611ad281611fde565b611b16565b8373ffffffffffffffffffffffffffffffffffffffff168573ffffffffffffffffffffffffffffffffffffffff1614611b1557611b148582612027565b5b5b600073ffffffffffffffffffffffffffffffffffffffff168473ffffffffffffffffffffffffffffffffffffffff161415611b5957611b5481612194565b611b98565b8473ffffffffffffffffffffffffffffffffffffffff168473ffffffffffffffffffffffffffffffffffffffff1614611b9757611b968482612265565b5b5b5050505050565b6000808273ffffffffffffffffffffffffffffffffffffffff163b119050919050565b606060006001611bd1846122e4565b01905060008167ffffffffffffffff811115611bf057611bef6128e6565b5b6040519080825280601f01601f191660200182016040528015611c225781602001600182028036833780820191505090505b509050600082602001820190505b600115611c8f578080600190039150507f3031323334353637383961626364656600000000000000000000000000000000600a86061a8153600a8581611c7957611c7861362c565b5b0494506000851415611c8a57611c8f565b611c30565b819350505050919050565b600073ffffffffffffffffffffffffffffffffffffffff168273ffffffffffffffffffffffffffffffffffffffff161415611d0a576040517f08c379a0000000000000000000000000000000000000000000000000000000008152600401611d01906136a7565b60405180910390fd5b611d138161170b565b15611d53576040517f08c379a0000000000000000000000000000000000000000000000000000000008152600401611d4a90613713565b60405180910390fd5b611d6160008383600161174c565b611d6a8161170b565b15611daa576040517f08c379a0000000000000000000000000000000000000000000000000000000008152600401611da190613713565b60405180910390fd5b6001600360008473ffffffffffffffffffffffffffffffffffffffff1673ffffffffffffffffffffffffffffffffffffffff16815260200190815260200160002060008282540192505081905550816002600083815260200190815260200160002060006101000a81548173ffffffffffffffffffffffffffffffffffffffff021916908373ffffffffffffffffffffffffffffffffffffffff160217905550808273ffffffffffffffffffffffffffffffffffffffff16600073ffffffffffffffffffffffffffffffffffffffff167fddf252ad1be2c89b69c2b068fc378daa952ba7f163c4a11628f55a4df523b3ef60405160405180910390a4611eb460008383600161175e565b5050565b6001811115611fd857600073ffffffffffffffffffffffffffffffffffffffff168473ffffffffffffffffffffffffffffffffffffffff1614611f4c5780600360008673ffffffffffffffffffffffffffffffffffffffff1673ffffffffffffffffffffffffffffffffffffffff1681526020019081526020016000206000828254611f449190613762565b925050819055505b600073ffffffffffffffffffffffffffffffffffffffff168373ffffffffffffffffffffffffffffffffffffffff1614611fd75780600360008573ffffffffffffffffffffffffffffffffffffffff1673ffffffffffffffffffffffffffffffffffffffff1681526020019081526020016000206000828254611fcf9190613796565b925050819055505b5b50505050565b6008805490506009600083815260200190815260200160002081905550600881908060018154018082558091505060019003906000526020600020016000909190919091505550565b6000600161203484610851565b61203e9190613762565b9050600060076000848152602001908152602001600020549050818114612123576000600660008673ffffffffffffffffffffffffffffffffffffffff1673ffffffffffffffffffffffffffffffffffffffff168152602001908152602001600020600084815260200190815260200160002054905080600660008773ffffffffffffffffffffffffffffffffffffffff1673ffffffffffffffffffffffffffffffffffffffff168152602001908152602001600020600084815260200190815260200160002081905550816007600083815260200190815260200160002081905550505b6007600084815260200190815260200160002060009055600660008573ffffffffffffffffffffffffffffffffffffffff1673ffffffffffffffffffffffffffffffffffffffff16815260200190815260200160002060008381526020019081526020016000206000905550505050565b600060016008805490506121a89190613762565b90506000600960008481526020019081526020016000205490506000600883815481106121d8576121d7612f0c565b5b9060005260206000200154905080600883815481106121fa576121f9612f0c565b5b906000526020600020018190555081600960008381526020019081526020016000208190555060096000858152602001908152602001600020600090556008805480612249576122486137ec565b5b6001900381819060005260206000200160009055905550505050565b600061227083610851565b905081600660008573ffffffffffffffffffffffffffffffffffffffff1673ffffffffffffffffffffffffffffffffffffffff168152602001908152602001600020600083815260200190815260200160002081905550806007600084815260200190815260200160002081905550505050565b600080600090507a184f03e93ff9f4daa797ed6e38ed64bf6a1f0100000000000000008310612342577a184f03e93ff9f4daa797ed6e38ed64bf6a1f01000000000000000083816123385761233761362c565b5b0492506040810190505b6d04ee2d6d415b85acef8100000000831061237f576d04ee2d6d415b85acef810000000083816123755761237461362c565b5b0492506020810190505b662386f26fc1000083106123ae57662386f26fc1000083816123a4576123a361362c565b5b0492506010810190505b6305f5e10083106123d7576305f5e10083816123cd576123cc61362c565b5b0492506008810190505b61271083106123fc5761271083816123f2576123f161362c565b5b0492506004810190505b6064831061241f57606483816124155761241461362c565b5b0492506002810190505b600a831061242e576001810190505b80915050919050565b82805461244390612c00565b90600052602060002090601f01602090048101928261246557600085556124ac565b82601f1061247e57805160ff19168380011785556124ac565b828001600101855582156124ac579182015b828111156124ab578251825591602001919060010190612490565b5b5090506124b991906124bd565b5090565b5b808211156124d65760008160009055506001016124be565b5090565b6000604051905090565b600080fd5b600080fd5b60007fffffffff0000000000000000000000000000000000000000000000000000000082169050919050565b612523816124ee565b811461252e57600080fd5b50565b6000813590506125408161251a565b92915050565b60006020828403121561255c5761255b6124e4565b5b600061256a84828501612531565b91505092915050565b60008115159050919050565b61258881612573565b82525050565b60006020820190506125a3600083018461257f565b92915050565b600081519050919050565b600082825260208201905092915050565b60005b838110156125e35780820151818401526020810190506125c8565b838111156125f2576000848401525b50505050565b6000601f19601f8301169050919050565b6000612614826125a9565b61261e81856125b4565b935061262e8185602086016125c5565b612637816125f8565b840191505092915050565b6000602082019050818103600083015261265c8184612609565b905092915050565b6000819050919050565b61267781612664565b811461268257600080fd5b50565b6000813590506126948161266e565b92915050565b6000602082840312156126b0576126af6124e4565b5b60006126be84828501612685565b91505092915050565b600073ffffffffffffffffffffffffffffffffffffffff82169050919050565b60006126f2826126c7565b9050919050565b612702816126e7565b82525050565b600060208201905061271d60008301846126f9565b92915050565b61272c816126e7565b811461273757600080fd5b50565b60008135905061274981612723565b92915050565b60008060408385031215612766576127656124e4565b5b60006127748582860161273a565b925050602061278585828601612685565b9150509250929050565b61279881612664565b82525050565b60006020820190506127b3600083018461278f565b92915050565b6000806000606084860312156127d2576127d16124e4565b5b60006127e08682870161273a565b93505060206127f18682870161273a565b925050604061280286828701612685565b9150509250925092565b600060ff82169050919050565b6128228161280c565b82525050565b600060208201905061283d6000830184612819565b92915050565b600060208284031215612859576128586124e4565b5b60006128678482850161273a565b91505092915050565b61287981612573565b811461288457600080fd5b50565b60008135905061289681612870565b92915050565b600080604083850312156128b3576128b26124e4565b5b60006128c18582860161273a565b92505060206128d285828601612887565b9150509250929050565b600080fd5b600080fd5b7f4e487b7100000000000000000000000000000000000000000000000000000000600052604160045260246000fd5b61291e826125f8565b810181811067ffffffffffffffff8211171561293d5761293c6128e6565b5b80604052505050565b60006129506124da565b905061295c8282612915565b919050565b600067ffffffffffffffff82111561297c5761297b6128e6565b5b612985826125f8565b9050602081019050919050565b82818337600083830152505050565b60006129b46129af84612961565b612946565b9050828152602081018484840111156129d0576129cf6128e1565b5b6129db848285612992565b509392505050565b600082601f8301126129f8576129f76128dc565b5b8135612a088482602086016129a1565b91505092915050565b60008060008060808587031215612a2b57612a2a6124e4565b5b6000612a398782880161273a565b9450506020612a4a8782880161273a565b9350506040612a5b87828801612685565b925050606085013567ffffffffffffffff811115612a7c57612a7b6124e9565b5b612a88878288016129e3565b91505092959194509250565b600067ffffffffffffffff821115612aaf57612aae6128e6565b5b612ab8826125f8565b9050602081019050919050565b6000612ad8612ad384612a94565b612946565b905082815260208101848484011115612af457612af36128e1565b5b612aff848285612992565b509392505050565b600082601f830112612b1c57612b1b6128dc565b5b8135612b2c848260208601612ac5565b91505092915050565b60008060408385031215612b4c57612b4b6124e4565b5b6000612b5a8582860161273a565b925050602083013567ffffffffffffffff811115612b7b57612b7a6124e9565b5b612b8785828601612b07565b9150509250929050565b60008060408385031215612ba857612ba76124e4565b5b6000612bb68582860161273a565b9250506020612bc78582860161273a565b9150509250929050565b7f4e487b7100000000000000000000000000000000000000000000000000000000600052602260045260246000fd5b60006002820490506001821680612c1857607f821691505b60208210811415612c2c57612c2b612bd1565b5b50919050565b7f4552433732313a20617070726f76616c20746f2063757272656e74206f776e6560008201527f7200000000000000000000000000000000000000000000000000000000000000602082015250565b6000612c8e6021836125b4565b9150612c9982612c32565b604082019050919050565b60006020820190508181036000830152612cbd81612c81565b9050919050565b7f4552433732313a20617070726f76652063616c6c6572206973206e6f7420746f60008201527f6b656e206f776e6572206f7220617070726f76656420666f7220616c6c000000602082015250565b6000612d20603d836125b4565b9150612d2b82612cc4565b604082019050919050565b60006020820190508181036000830152612d4f81612d13565b9050919050565b7f4552433732313a2063616c6c6572206973206e6f7420746f6b656e206f776e6560008201527f72206f7220617070726f76656400000000000000000000000000000000000000602082015250565b6000612db2602d836125b4565b9150612dbd82612d56565b604082019050919050565b60006020820190508181036000830152612de181612da5565b9050919050565b7f455243373231456e756d657261626c653a206f776e657220696e646578206f7560008201527f74206f6620626f756e6473000000000000000000000000000000000000000000602082015250565b6000612e44602b836125b4565b9150612e4f82612de8565b604082019050919050565b60006020820190508181036000830152612e7381612e37565b9050919050565b7f455243373231456e756d657261626c653a20676c6f62616c20696e646578206f60008201527f7574206f6620626f756e64730000000000000000000000000000000000000000602082015250565b6000612ed6602c836125b4565b9150612ee182612e7a565b604082019050919050565b60006020820190508181036000830152612f0581612ec9565b9050919050565b7f4e487b7100000000000000000000000000000000000000000000000000000000600052603260045260246000fd5b7f4552433732313a20696e76616c696420746f6b656e2049440000000000000000600082015250565b6000612f716018836125b4565b9150612f7c82612f3b565b602082019050919050565b60006020820190508181036000830152612fa081612f64565b9050919050565b7f4552433732313a2061646472657373207a65726f206973206e6f74206120766160008201527f6c6964206f776e65720000000000000000000000000000000000000000000000602082015250565b60006130036029836125b4565b915061300e82612fa7565b604082019050919050565b6000602082019050818103600083015261303281612ff6565b9050919050565b7f4d6178696d756d20537570706c79204c696d6974205265616368656400000000600082015250565b600061306f601c836125b4565b915061307a82613039565b602082019050919050565b6000602082019050818103600083015261309e81613062565b9050919050565b7f4f776e61626c653a206e6577206f776e657220697320746865207a65726f206160008201527f6464726573730000000000000000000000000000000000000000000000000000602082015250565b60006131016026836125b4565b915061310c826130a5565b604082019050919050565b60006020820190508181036000830152613130816130f4565b9050919050565b7f4552433732313a207472616e736665722066726f6d20696e636f72726563742060008201527f6f776e6572000000000000000000000000000000000000000000000000000000602082015250565b60006131936025836125b4565b915061319e82613137565b604082019050919050565b600060208201905081810360008301526131c281613186565b9050919050565b7f4552433732313a207472616e7366657220746f20746865207a65726f2061646460008201527f7265737300000000000000000000000000000000000000000000000000000000602082015250565b60006132256024836125b4565b9150613230826131c9565b604082019050919050565b6000602082019050818103600083015261325481613218565b9050919050565b7f4f776e61626c653a2063616c6c6572206973206e6f7420746865206f776e6572600082015250565b60006132916020836125b4565b915061329c8261325b565b602082019050919050565b600060208201905081810360008301526132c081613284565b9050919050565b7f4552433732313a20617070726f766520746f2063616c6c657200000000000000600082015250565b60006132fd6019836125b4565b9150613308826132c7565b602082019050919050565b6000602082019050818103600083015261332c816132f0565b9050919050565b7f4552433732313a207472616e7366657220746f206e6f6e20455243373231526560008201527f63656976657220696d706c656d656e7465720000000000000000000000000000602082015250565b600061338f6032836125b4565b915061339a82613333565b604082019050919050565b600060208201905081810360008301526133be81613382565b9050919050565b600081905092915050565b60006133db826125a9565b6133e581856133c5565b93506133f58185602086016125c5565b80840191505092915050565b600061340d82856133d0565b915061341982846133d0565b91508190509392505050565b7f45524337323155524953746f726167653a2055524920736574206f66206e6f6e60008201527f6578697374656e7420746f6b656e000000000000000000000000000000000000602082015250565b6000613481602e836125b4565b915061348c82613425565b604082019050919050565b600060208201905081810360008301526134b081613474565b9050919050565b600081519050919050565b600082825260208201905092915050565b60006134de826134b7565b6134e881856134c2565b93506134f88185602086016125c5565b613501816125f8565b840191505092915050565b600060808201905061352160008301876126f9565b61352e60208301866126f9565b61353b604083018561278f565b818103606083015261354d81846134d3565b905095945050505050565b6000815190506135678161251a565b92915050565b600060208284031215613583576135826124e4565b5b600061359184828501613558565b91505092915050565b7f455243373231456e756d657261626c653a20636f6e736563757469766520747260008201527f616e7366657273206e6f7420737570706f727465640000000000000000000000602082015250565b60006135f66035836125b4565b91506136018261359a565b604082019050919050565b60006020820190508181036000830152613625816135e9565b9050919050565b7f4e487b7100000000000000000000000000000000000000000000000000000000600052601260045260246000fd5b7f4552433732313a206d696e7420746f20746865207a65726f2061646472657373600082015250565b60006136916020836125b4565b915061369c8261365b565b602082019050919050565b600060208201905081810360008301526136c081613684565b9050919050565b7f4552433732313a20746f6b656e20616c7265616479206d696e74656400000000600082015250565b60006136fd601c836125b4565b9150613708826136c7565b602082019050919050565b6000602082019050818103600083015261372c816136f0565b9050919050565b7f4e487b7100000000000000000000000000000000000000000000000000000000600052601160045260246000fd5b600061376d82612664565b915061377883612664565b92508282101561378b5761378a613733565b5b828203905092915050565b60006137a182612664565b91506137ac83612664565b9250827fffffffffffffffffffffffffffffffffffffffffffffffffffffffffffffffff038211156137e1576137e0613733565b5b828201905092915050565b7f4e487b7100000000000000000000000000000000000000000000000000000000600052603160045260246000fdfea26469706673582212201247a14b061f527b91a6cf695018e7fe6bb0ae8b590392e2220ea0a2102434cd64736f6c63430008090033",
  "linkReferences": {},
  "deployedLinkReferences": {}
}