{
  "_format": "hh-sol-artifact-1",
  "contractName": "NFTCollection",
  "sourceName": "contracts/NFTCollection.sol",
  "abi": [
    {
      "inputs": [
        {
          "internalType": "string",
          "name": "_name",
          "type": "string"
        },
        {
          "internalType": "string",
          "name": "_symbol",
          "type": "string"
        }
      ],
      "stateMutability": "nonpayable",
      "type": "constructor"
    },
    {
      "anonymous": false,
      "inputs": [
        {
          "indexed": true,
          "internalType": "address",
          "name": "owner",
          "type": "address"
        },
        {
          "indexed": true,
          "internalType": "address",
          "name": "approved",
          "type": "address"
        },
        {
          "indexed": true,
          "internalType": "uint256",
          "name": "tokenId",
          "type": "uint256"
        }
      ],
      "name": "Approval",
      "type": "event"
    },
    {
      "anonymous": false,
      "inputs": [
        {
          "indexed": true,
          "internalType": "address",
          "name": "owner",
          "type": "address"
        },
        {
          "indexed": true,
          "internalType": "address",
          "name": "operator",
          "type": "address"
        },
        {
          "indexed": false,
          "internalType": "bool",
          "name": "approved",
          "type": "bool"
        }
      ],
      "name": "ApprovalForAll",
      "type": "event"
    },
    {
      "anonymous": false,
      "inputs": [
        {
          "components": [
            {
              "internalType": "uint256",
              "name": "id",
              "type": "uint256"
            },
            {
              "internalType": "address",
              "name": "owner",
              "type": "address"
            },
            {
              "internalType": "string",
              "name": "uri",
              "type": "string"
            }
          ],
          "indexed": false,
          "internalType": "struct NFTCollection.TokenItem",
          "name": "tokenData",
          "type": "tuple"
        }
      ],
      "name": "Minted",
      "type": "event"
    },
    {
      "anonymous": false,
      "inputs": [
        {
          "indexed": true,
          "internalType": "address",
          "name": "previousOwner",
          "type": "address"
        },
        {
          "indexed": true,
          "internalType": "address",
          "name": "newOwner",
          "type": "address"
        }
      ],
      "name": "OwnershipTransferred",
      "type": "event"
    },
    {
      "anonymous": false,
      "inputs": [
        {
          "indexed": true,
          "internalType": "address",
          "name": "from",
          "type": "address"
        },
        {
          "indexed": true,
          "internalType": "address",
          "name": "to",
          "type": "address"
        },
        {
          "indexed": true,
          "internalType": "uint256",
          "name": "tokenId",
          "type": "uint256"
        }
      ],
      "name": "Transfer",
      "type": "event"
    },
    {
      "inputs": [],
      "name": "MAX_SUPPLY",
      "outputs": [
        {
          "internalType": "uint8",
          "name": "",
          "type": "uint8"
        }
      ],
      "stateMutability": "view",
      "type": "function"
    },
    {
      "inputs": [
        {
          "internalType": "address",
          "name": "to",
          "type": "address"
        },
        {
          "internalType": "uint256",
          "name": "tokenId",
          "type": "uint256"
        }
      ],
      "name": "approve",
      "outputs": [],
      "stateMutability": "nonpayable",
      "type": "function"
    },
    {
      "inputs": [
        {
          "internalType": "address",
          "name": "owner",
          "type": "address"
        }
      ],
      "name": "balanceOf",
      "outputs": [
        {
          "internalType": "uint256",
          "name": "",
          "type": "uint256"
        }
      ],
      "stateMutability": "view",
      "type": "function"
    },
    {
      "inputs": [],
      "name": "getAllTokenData",
      "outputs": [
        {
          "components": [
            {
              "internalType": "uint256",
              "name": "id",
              "type": "uint256"
            },
            {
              "internalType": "address",
              "name": "owner",
              "type": "address"
            },
            {
              "internalType": "string",
              "name": "uri",
              "type": "string"
            }
          ],
          "internalType": "struct NFTCollection.TokenItem[]",
          "name": "",
          "type": "tuple[]"
        }
      ],
      "stateMutability": "view",
      "type": "function"
    },
    {
      "inputs": [
        {
          "internalType": "uint256",
          "name": "tokenId",
          "type": "uint256"
        }
      ],
      "name": "getApproved",
      "outputs": [
        {
          "internalType": "address",
          "name": "",
          "type": "address"
        }
      ],
      "stateMutability": "view",
      "type": "function"
    },
    {
      "inputs": [
        {
          "internalType": "uint8",
          "name": "n",
          "type": "uint8"
        }
      ],
      "name": "increaseMaxSupply",
      "outputs": [],
      "stateMutability": "nonpayable",
      "type": "function"
    },
    {
      "inputs": [
        {
          "internalType": "address",
          "name": "owner",
          "type": "address"
        },
        {
          "internalType": "address",
          "name": "operator",
          "type": "address"
        }
      ],
      "name": "isApprovedForAll",
      "outputs": [
        {
          "internalType": "bool",
          "name": "",
          "type": "bool"
        }
      ],
      "stateMutability": "view",
      "type": "function"
    },
    {
      "inputs": [],
      "name": "name",
      "outputs": [
        {
          "internalType": "string",
          "name": "",
          "type": "string"
        }
      ],
      "stateMutability": "view",
      "type": "function"
    },
    {
      "inputs": [],
      "name": "owner",
      "outputs": [
        {
          "internalType": "address",
          "name": "",
          "type": "address"
        }
      ],
      "stateMutability": "view",
      "type": "function"
    },
    {
      "inputs": [
        {
          "internalType": "uint256",
          "name": "tokenId",
          "type": "uint256"
        }
      ],
      "name": "ownerOf",
      "outputs": [
        {
          "internalType": "address",
          "name": "",
          "type": "address"
        }
      ],
      "stateMutability": "view",
      "type": "function"
    },
    {
      "inputs": [],
      "name": "renounceOwnership",
      "outputs": [],
      "stateMutability": "nonpayable",
      "type": "function"
    },
    {
      "inputs": [
        {
          "internalType": "address",
          "name": "to",
          "type": "address"
        },
        {
          "internalType": "string",
          "name": "uri",
          "type": "string"
        }
      ],
      "name": "safeMint",
      "outputs": [],
      "stateMutability": "nonpayable",
      "type": "function"
    },
    {
      "inputs": [
        {
          "internalType": "address",
          "name": "from",
          "type": "address"
        },
        {
          "internalType": "address",
          "name": "to",
          "type": "address"
        },
        {
          "internalType": "uint256",
          "name": "tokenId",
          "type": "uint256"
        }
      ],
      "name": "safeTransferFrom",
      "outputs": [],
      "stateMutability": "nonpayable",
      "type": "function"
    },
    {
      "inputs": [
        {
          "internalType": "address",
          "name": "from",
          "type": "address"
        },
        {
          "internalType": "address",
          "name": "to",
          "type": "address"
        },
        {
          "internalType": "uint256",
          "name": "tokenId",
          "type": "uint256"
        },
        {
          "internalType": "bytes",
          "name": "data",
          "type": "bytes"
        }
      ],
      "name": "safeTransferFrom",
      "outputs": [],
      "stateMutability": "nonpayable",
      "type": "function"
    },
    {
      "inputs": [
        {
          "internalType": "address",
          "name": "operator",
          "type": "address"
        },
        {
          "internalType": "bool",
          "name": "approved",
          "type": "bool"
        }
      ],
      "name": "setApprovalForAll",
      "outputs": [],
      "stateMutability": "nonpayable",
      "type": "function"
    },
    {
      "inputs": [
        {
          "internalType": "bytes4",
          "name": "interfaceId",
          "type": "bytes4"
        }
      ],
      "name": "supportsInterface",
      "outputs": [
        {
          "internalType": "bool",
          "name": "",
          "type": "bool"
        }
      ],
      "stateMutability": "view",
      "type": "function"
    },
    {
      "inputs": [],
      "name": "symbol",
      "outputs": [
        {
          "internalType": "string",
          "name": "",
          "type": "string"
        }
      ],
      "stateMutability": "view",
      "type": "function"
    },
    {
      "inputs": [
        {
          "internalType": "uint256",
          "name": "index",
          "type": "uint256"
        }
      ],
      "name": "tokenByIndex",
      "outputs": [
        {
          "internalType": "uint256",
          "name": "",
          "type": "uint256"
        }
      ],
      "stateMutability": "view",
      "type": "function"
    },
    {
      "inputs": [
        {
          "internalType": "address",
          "name": "owner",
          "type": "address"
        },
        {
          "internalType": "uint256",
          "name": "index",
          "type": "uint256"
        }
      ],
      "name": "tokenOfOwnerByIndex",
      "outputs": [
        {
          "internalType": "uint256",
          "name": "",
          "type": "uint256"
        }
      ],
      "stateMutability": "view",
      "type": "function"
    },
    {
      "inputs": [
        {
          "internalType": "uint256",
          "name": "tokenId",
          "type": "uint256"
        }
      ],
      "name": "tokenURI",
      "outputs": [
        {
          "internalType": "string",
          "name": "",
          "type": "string"
        }
      ],
      "stateMutability": "view",
      "type": "function"
    },
    {
      "inputs": [],
      "name": "totalSupply",
      "outputs": [
        {
          "internalType": "uint256",
          "name": "",
          "type": "uint256"
        }
      ],
      "stateMutability": "view",
      "type": "function"
    },
    {
      "inputs": [
        {
          "internalType": "address",
          "name": "from",
          "type": "address"
        },
        {
          "internalType": "address",
          "name": "to",
          "type": "address"
        },
        {
          "internalType": "uint256",
          "name": "tokenId",
          "type": "uint256"
        }
      ],
      "name": "transferFrom",
      "outputs": [],
      "stateMutability": "nonpayable",
      "type": "function"
    },
    {
      "inputs": [
        {
          "internalType": "address",
          "name": "newOwner",
          "type": "address"
        }
      ],
      "name": "transferOwnership",
      "outputs": [],
      "stateMutability": "nonpayable",
      "type": "function"
    },
    {
      "inputs": [],
      "name": "withdraw",
      "outputs": [],
      "stateMutability": "nonpayable",
      "type": "function"
    },
    {
      "stateMutability": "payable",
      "type": "receive"
    }
  ],
  "bytecode": "0x60806040526064600d60006101000a81548160ff021916908360ff1602179055503480156200002d57600080fd5b50604051620043d0380380620043d08339818101604052810190620000539190620003cc565b818181600090805190602001906200006d9291906200017f565b508060019080519060200190620000869291906200017f565b505050620000a96200009d620000b160201b60201c565b620000b960201b60201c565b5050620004b6565b600033905090565b6000600b60009054906101000a900473ffffffffffffffffffffffffffffffffffffffff16905081600b60006101000a81548173ffffffffffffffffffffffffffffffffffffffff021916908373ffffffffffffffffffffffffffffffffffffffff1602179055508173ffffffffffffffffffffffffffffffffffffffff168173ffffffffffffffffffffffffffffffffffffffff167f8be0079c531659141344cd1fd0a4f28419497f9722a3daafe3b4186f6b6457e060405160405180910390a35050565b8280546200018d9062000480565b90600052602060002090601f016020900481019282620001b15760008555620001fd565b82601f10620001cc57805160ff1916838001178555620001fd565b82800160010185558215620001fd579182015b82811115620001fc578251825591602001919060010190620001df565b5b5090506200020c919062000210565b5090565b5b808211156200022b57600081600090555060010162000211565b5090565b6000604051905090565b600080fd5b600080fd5b600080fd5b600080fd5b6000601f19601f8301169050919050565b7f4e487b7100000000000000000000000000000000000000000000000000000000600052604160045260246000fd5b62000298826200024d565b810181811067ffffffffffffffff82111715620002ba57620002b96200025e565b5b80604052505050565b6000620002cf6200022f565b9050620002dd82826200028d565b919050565b600067ffffffffffffffff8211156200030057620002ff6200025e565b5b6200030b826200024d565b9050602081019050919050565b60005b83811015620003385780820151818401526020810190506200031b565b8381111562000348576000848401525b50505050565b6000620003656200035f84620002e2565b620002c3565b90508281526020810184848401111562000384576200038362000248565b5b6200039184828562000318565b509392505050565b600082601f830112620003b157620003b062000243565b5b8151620003c38482602086016200034e565b91505092915050565b60008060408385031215620003e657620003e562000239565b5b600083015167ffffffffffffffff8111156200040757620004066200023e565b5b620004158582860162000399565b925050602083015167ffffffffffffffff8111156200043957620004386200023e565b5b620004478582860162000399565b9150509250929050565b7f4e487b7100000000000000000000000000000000000000000000000000000000600052602260045260246000fd5b600060028204905060018216806200049957607f821691505b60208210811415620004b057620004af62000451565b5b50919050565b613f0a80620004c66000396000f3fe60806040526004361061014f5760003560e01c8063647e0cee116100b6578063a22cb4651161006f578063a22cb4651461049d578063b88d4fde146104c6578063c87b56dd146104ef578063d204c45e1461052c578063e985e9c514610555578063f2fde38b1461059257610156565b8063647e0cee1461039f57806370a08231146103c8578063715018a6146104055780638da5cb5b1461041c57806395d89b41146104475780639ebeef591461047257610156565b80632f745c59116101085780632f745c591461027d57806332cb6b0c146102ba5780633ccfd60b146102e557806342842e0e146102fc5780634f6ccce7146103255780636352211e1461036257610156565b806301ffc9a71461015b57806306fdde0314610198578063081812fc146101c3578063095ea7b31461020057806318160ddd1461022957806323b872dd1461025457610156565b3661015657005b600080fd5b34801561016757600080fd5b50610182600480360381019061017d9190612918565b6105bb565b60405161018f9190612960565b60405180910390f35b3480156101a457600080fd5b506101ad6105cd565b6040516101ba9190612a14565b60405180910390f35b3480156101cf57600080fd5b506101ea60048036038101906101e59190612a6c565b61065f565b6040516101f79190612ada565b60405180910390f35b34801561020c57600080fd5b5061022760048036038101906102229190612b21565b6106a5565b005b34801561023557600080fd5b5061023e6107bd565b60405161024b9190612b70565b60405180910390f35b34801561026057600080fd5b5061027b60048036038101906102769190612b8b565b6107ca565b005b34801561028957600080fd5b506102a4600480360381019061029f9190612b21565b61082a565b6040516102b19190612b70565b60405180910390f35b3480156102c657600080fd5b506102cf6108cf565b6040516102dc9190612bfa565b60405180910390f35b3480156102f157600080fd5b506102fa6108e2565b005b34801561030857600080fd5b50610323600480360381019061031e9190612b8b565b61093a565b005b34801561033157600080fd5b5061034c60048036038101906103479190612a6c565b61095a565b6040516103599190612b70565b60405180910390f35b34801561036e57600080fd5b5061038960048036038101906103849190612a6c565b6109cb565b6040516103969190612ada565b60405180910390f35b3480156103ab57600080fd5b506103c660048036038101906103c19190612c41565b610a52565b005b3480156103d457600080fd5b506103ef60048036038101906103ea9190612c6e565b610a93565b6040516103fc9190612b70565b60405180910390f35b34801561041157600080fd5b5061041a610b4b565b005b34801561042857600080fd5b50610431610b5f565b60405161043e9190612ada565b60405180910390f35b34801561045357600080fd5b5061045c610b89565b6040516104699190612a14565b60405180910390f35b34801561047e57600080fd5b50610487610c1b565b6040516104949190612e15565b60405180910390f35b3480156104a957600080fd5b506104c460048036038101906104bf9190612e63565b610d07565b005b3480156104d257600080fd5b506104ed60048036038101906104e89190612fd8565b610d1d565b005b3480156104fb57600080fd5b5061051660048036038101906105119190612a6c565b610d7f565b6040516105239190612a14565b60405180910390f35b34801561053857600080fd5b50610553600480360381019061054e91906130fc565b610d91565b005b34801561056157600080fd5b5061057c60048036038101906105779190613158565b610e84565b6040516105899190612960565b60405180910390f35b34801561059e57600080fd5b506105b960048036038101906105b49190612c6e565b610f18565b005b60006105c682610f9c565b9050919050565b6060600080546105dc906131c7565b80601f0160208091040260200160405190810160405280929190818152602001828054610608906131c7565b80156106555780601f1061062a57610100808354040283529160200191610655565b820191906000526020600020905b81548152906001019060200180831161063857829003601f168201915b5050505050905090565b600061066a82611016565b6004600083815260200190815260200160002060009054906101000a900473ffffffffffffffffffffffffffffffffffffffff169050919050565b60006106b0826109cb565b90508073ffffffffffffffffffffffffffffffffffffffff168373ffffffffffffffffffffffffffffffffffffffff161415610721576040517f08c379a00000000000000000000000000000000000000000000000000000000081526004016107189061326b565b60405180910390fd5b8073ffffffffffffffffffffffffffffffffffffffff16610740611061565b73ffffffffffffffffffffffffffffffffffffffff16148061076f575061076e81610769611061565b610e84565b5b6107ae576040517f08c379a00000000000000000000000000000000000000000000000000000000081526004016107a5906132fd565b60405180910390fd5b6107b88383611069565b505050565b6000600880549050905090565b6107db6107d5611061565b82611122565b61081a576040517f08c379a00000000000000000000000000000000000000000000000000000000081526004016108119061338f565b60405180910390fd5b6108258383836111b7565b505050565b600061083583610a93565b8210610876576040517f08c379a000000000000000000000000000000000000000000000000000000000815260040161086d90613421565b60405180910390fd5b600660008473ffffffffffffffffffffffffffffffffffffffff1673ffffffffffffffffffffffffffffffffffffffff168152602001908152602001600020600083815260200190815260200160002054905092915050565b600d60009054906101000a900460ff1681565b6108ea6114b1565b6108f2610b5f565b73ffffffffffffffffffffffffffffffffffffffff166108fc479081150290604051600060405180830381858888f19350505050158015610937573d6000803e3d6000fd5b50565b61095583838360405180602001604052806000815250610d1d565b505050565b60006109646107bd565b82106109a5576040517f08c379a000000000000000000000000000000000000000000000000000000000815260040161099c906134b3565b60405180910390fd5b600882815481106109b9576109b86134d3565b5b90600052602060002001549050919050565b6000806109d78361152f565b9050600073ffffffffffffffffffffffffffffffffffffffff168173ffffffffffffffffffffffffffffffffffffffff161415610a49576040517f08c379a0000000000000000000000000000000000000000000000000000000008152600401610a409061354e565b60405180910390fd5b80915050919050565b610a5a6114b1565b80600d60008282829054906101000a900460ff16610a78919061359d565b92506101000a81548160ff021916908360ff16021790555050565b60008073ffffffffffffffffffffffffffffffffffffffff168273ffffffffffffffffffffffffffffffffffffffff161415610b04576040517f08c379a0000000000000000000000000000000000000000000000000000000008152600401610afb90613646565b60405180910390fd5b600360008373ffffffffffffffffffffffffffffffffffffffff1673ffffffffffffffffffffffffffffffffffffffff168152602001908152602001600020549050919050565b610b536114b1565b610b5d600061156c565b565b6000600b60009054906101000a900473ffffffffffffffffffffffffffffffffffffffff16905090565b606060018054610b98906131c7565b80601f0160208091040260200160405190810160405280929190818152602001828054610bc4906131c7565b8015610c115780601f10610be657610100808354040283529160200191610c11565b820191906000526020600020905b815481529060010190602001808311610bf457829003601f168201915b5050505050905090565b60606000610c276107bd565b905060008167ffffffffffffffff811115610c4557610c44612ead565b5b604051908082528060200260200182016040528015610c7e57816020015b610c6b6127d2565b815260200190600190039081610c635790505b50905060005b82811015610cfe576040518060600160405280828152602001610ca6836109cb565b73ffffffffffffffffffffffffffffffffffffffff168152602001610cca83610d7f565b815250828281518110610ce057610cdf6134d3565b5b60200260200101819052508080610cf690613666565b915050610c84565b50809250505090565b610d19610d12611061565b8383611632565b5050565b610d2e610d28611061565b83611122565b610d6d576040517f08c379a0000000000000000000000000000000000000000000000000000000008152600401610d649061338f565b60405180910390fd5b610d798484848461179f565b50505050565b6060610d8a826117fb565b9050919050565b600d60009054906101000a900460ff1660ff16610dac6107bd565b10610dec576040517f08c379a0000000000000000000000000000000000000000000000000000000008152600401610de3906136fb565b60405180910390fd5b6000610df8600c61190e565b9050610e04600c61191c565b610e0e8382611932565b610e188183611950565b7fffad858c03cf4c6b4df60762a3c22c6288da8edfdf993960d8fdc1af09b436cb60405180606001604052808381526020013373ffffffffffffffffffffffffffffffffffffffff16815260200184815250604051610e77919061376b565b60405180910390a1505050565b6000600560008473ffffffffffffffffffffffffffffffffffffffff1673ffffffffffffffffffffffffffffffffffffffff16815260200190815260200160002060008373ffffffffffffffffffffffffffffffffffffffff1673ffffffffffffffffffffffffffffffffffffffff16815260200190815260200160002060009054906101000a900460ff16905092915050565b610f206114b1565b600073ffffffffffffffffffffffffffffffffffffffff168173ffffffffffffffffffffffffffffffffffffffff161415610f90576040517f08c379a0000000000000000000000000000000000000000000000000000000008152600401610f87906137ff565b60405180910390fd5b610f998161156c565b50565b60007f780e9d63000000000000000000000000000000000000000000000000000000007bffffffffffffffffffffffffffffffffffffffffffffffffffffffff1916827bffffffffffffffffffffffffffffffffffffffffffffffffffffffff1916148061100f575061100e826119c4565b5b9050919050565b61101f81611aa6565b61105e576040517f08c379a00000000000000000000000000000000000000000000000000000000081526004016110559061354e565b60405180910390fd5b50565b600033905090565b816004600083815260200190815260200160002060006101000a81548173ffffffffffffffffffffffffffffffffffffffff021916908373ffffffffffffffffffffffffffffffffffffffff160217905550808273ffffffffffffffffffffffffffffffffffffffff166110dc836109cb565b73ffffffffffffffffffffffffffffffffffffffff167f8c5be1e5ebec7d5bd14f71427d1e84f3dd0314c0f7b2291e5b200ac8c7c3b92560405160405180910390a45050565b60008061112e836109cb565b90508073ffffffffffffffffffffffffffffffffffffffff168473ffffffffffffffffffffffffffffffffffffffff161480611170575061116f8185610e84565b5b806111ae57508373ffffffffffffffffffffffffffffffffffffffff166111968461065f565b73ffffffffffffffffffffffffffffffffffffffff16145b91505092915050565b8273ffffffffffffffffffffffffffffffffffffffff166111d7826109cb565b73ffffffffffffffffffffffffffffffffffffffff161461122d576040517f08c379a000000000000000000000000000000000000000000000000000000000815260040161122490613891565b60405180910390fd5b600073ffffffffffffffffffffffffffffffffffffffff168273ffffffffffffffffffffffffffffffffffffffff16141561129d576040517f08c379a000000000000000000000000000000000000000000000000000000000815260040161129490613923565b60405180910390fd5b6112aa8383836001611ae7565b8273ffffffffffffffffffffffffffffffffffffffff166112ca826109cb565b73ffffffffffffffffffffffffffffffffffffffff1614611320576040517f08c379a000000000000000000000000000000000000000000000000000000000815260040161131790613891565b60405180910390fd5b6004600082815260200190815260200160002060006101000a81549073ffffffffffffffffffffffffffffffffffffffff02191690556001600360008573ffffffffffffffffffffffffffffffffffffffff1673ffffffffffffffffffffffffffffffffffffffff168152602001908152602001600020600082825403925050819055506001600360008473ffffffffffffffffffffffffffffffffffffffff1673ffffffffffffffffffffffffffffffffffffffff16815260200190815260200160002060008282540192505081905550816002600083815260200190815260200160002060006101000a81548173ffffffffffffffffffffffffffffffffffffffff021916908373ffffffffffffffffffffffffffffffffffffffff160217905550808273ffffffffffffffffffffffffffffffffffffffff168473ffffffffffffffffffffffffffffffffffffffff167fddf252ad1be2c89b69c2b068fc378daa952ba7f163c4a11628f55a4df523b3ef60405160405180910390a46114ac8383836001611af9565b505050565b6114b9611061565b73ffffffffffffffffffffffffffffffffffffffff166114d7610b5f565b73ffffffffffffffffffffffffffffffffffffffff161461152d576040517f08c379a00000000000000000000000000000000000000000000000000000000081526004016115249061398f565b60405180910390fd5b565b60006002600083815260200190815260200160002060009054906101000a900473ffffffffffffffffffffffffffffffffffffffff169050919050565b6000600b60009054906101000a900473ffffffffffffffffffffffffffffffffffffffff16905081600b60006101000a81548173ffffffffffffffffffffffffffffffffffffffff021916908373ffffffffffffffffffffffffffffffffffffffff1602179055508173ffffffffffffffffffffffffffffffffffffffff168173ffffffffffffffffffffffffffffffffffffffff167f8be0079c531659141344cd1fd0a4f28419497f9722a3daafe3b4186f6b6457e060405160405180910390a35050565b8173ffffffffffffffffffffffffffffffffffffffff168373ffffffffffffffffffffffffffffffffffffffff1614156116a1576040517f08c379a0000000000000000000000000000000000000000000000000000000008152600401611698906139fb565b60405180910390fd5b80600560008573ffffffffffffffffffffffffffffffffffffffff1673ffffffffffffffffffffffffffffffffffffffff16815260200190815260200160002060008473ffffffffffffffffffffffffffffffffffffffff1673ffffffffffffffffffffffffffffffffffffffff16815260200190815260200160002060006101000a81548160ff0219169083151502179055508173ffffffffffffffffffffffffffffffffffffffff168373ffffffffffffffffffffffffffffffffffffffff167f17307eab39ab6107e8899845ad3d59bd9653f200f220920489ca2b5937696c31836040516117929190612960565b60405180910390a3505050565b6117aa8484846111b7565b6117b684848484611aff565b6117f5576040517f08c379a00000000000000000000000000000000000000000000000000000000081526004016117ec90613a8d565b60405180910390fd5b50505050565b606061180682611016565b6000600a60008481526020019081526020016000208054611826906131c7565b80601f0160208091040260200160405190810160405280929190818152602001828054611852906131c7565b801561189f5780601f106118745761010080835404028352916020019161189f565b820191906000526020600020905b81548152906001019060200180831161188257829003601f168201915b5050505050905060006118b0611c96565b90506000815114156118c6578192505050611909565b6000825111156118fb5780826040516020016118e3929190613ae9565b60405160208183030381529060405292505050611909565b61190484611cad565b925050505b919050565b600081600001549050919050565b6001816000016000828254019250508190555050565b61194c828260405180602001604052806000815250611d15565b5050565b61195982611aa6565b611998576040517f08c379a000000000000000000000000000000000000000000000000000000000815260040161198f90613b7f565b60405180910390fd5b80600a600084815260200190815260200160002090805190602001906119bf929190612809565b505050565b60007f80ac58cd000000000000000000000000000000000000000000000000000000007bffffffffffffffffffffffffffffffffffffffffffffffffffffffff1916827bffffffffffffffffffffffffffffffffffffffffffffffffffffffff19161480611a8f57507f5b5e139f000000000000000000000000000000000000000000000000000000007bffffffffffffffffffffffffffffffffffffffffffffffffffffffff1916827bffffffffffffffffffffffffffffffffffffffffffffffffffffffff1916145b80611a9f5750611a9e82611d70565b5b9050919050565b60008073ffffffffffffffffffffffffffffffffffffffff16611ac88361152f565b73ffffffffffffffffffffffffffffffffffffffff1614159050919050565b611af384848484611dda565b50505050565b50505050565b6000611b208473ffffffffffffffffffffffffffffffffffffffff16611f3a565b15611c89578373ffffffffffffffffffffffffffffffffffffffff1663150b7a02611b49611061565b8786866040518563ffffffff1660e01b8152600401611b6b9493929190613bf4565b602060405180830381600087803b158015611b8557600080fd5b505af1925050508015611bb657506040513d601f19601f82011682018060405250810190611bb39190613c55565b60015b611c39573d8060008114611be6576040519150601f19603f3d011682016040523d82523d6000602084013e611beb565b606091505b50600081511415611c31576040517f08c379a0000000000000000000000000000000000000000000000000000000008152600401611c2890613a8d565b60405180910390fd5b805181602001fd5b63150b7a0260e01b7bffffffffffffffffffffffffffffffffffffffffffffffffffffffff1916817bffffffffffffffffffffffffffffffffffffffffffffffffffffffff191614915050611c8e565b600190505b949350505050565b606060405180602001604052806000815250905090565b6060611cb882611016565b6000611cc2611c96565b90506000815111611ce25760405180602001604052806000815250611d0d565b80611cec84611f5d565b604051602001611cfd929190613ae9565b6040516020818303038152906040525b915050919050565b611d1f8383612035565b611d2c6000848484611aff565b611d6b576040517f08c379a0000000000000000000000000000000000000000000000000000000008152600401611d6290613a8d565b60405180910390fd5b505050565b60007f01ffc9a7000000000000000000000000000000000000000000000000000000007bffffffffffffffffffffffffffffffffffffffffffffffffffffffff1916827bffffffffffffffffffffffffffffffffffffffffffffffffffffffff1916149050919050565b611de684848484612253565b6001811115611e2a576040517f08c379a0000000000000000000000000000000000000000000000000000000008152600401611e2190613cf4565b60405180910390fd5b6000829050600073ffffffffffffffffffffffffffffffffffffffff168573ffffffffffffffffffffffffffffffffffffffff161415611e7257611e6d81612379565b611eb1565b8373ffffffffffffffffffffffffffffffffffffffff168573ffffffffffffffffffffffffffffffffffffffff1614611eb057611eaf85826123c2565b5b5b600073ffffffffffffffffffffffffffffffffffffffff168473ffffffffffffffffffffffffffffffffffffffff161415611ef457611eef8161252f565b611f33565b8473ffffffffffffffffffffffffffffffffffffffff168473ffffffffffffffffffffffffffffffffffffffff1614611f3257611f318482612600565b5b5b5050505050565b6000808273ffffffffffffffffffffffffffffffffffffffff163b119050919050565b606060006001611f6c8461267f565b01905060008167ffffffffffffffff811115611f8b57611f8a612ead565b5b6040519080825280601f01601f191660200182016040528015611fbd5781602001600182028036833780820191505090505b509050600082602001820190505b60011561202a578080600190039150507f3031323334353637383961626364656600000000000000000000000000000000600a86061a8153600a858161201457612013613d14565b5b04945060008514156120255761202a565b611fcb565b819350505050919050565b600073ffffffffffffffffffffffffffffffffffffffff168273ffffffffffffffffffffffffffffffffffffffff1614156120a5576040517f08c379a000000000000000000000000000000000000000000000000000000000815260040161209c90613d8f565b60405180910390fd5b6120ae81611aa6565b156120ee576040517f08c379a00000000000000000000000000000000000000000000000000000000081526004016120e590613dfb565b60405180910390fd5b6120fc600083836001611ae7565b61210581611aa6565b15612145576040517f08c379a000000000000000000000000000000000000000000000000000000000815260040161213c90613dfb565b60405180910390fd5b6001600360008473ffffffffffffffffffffffffffffffffffffffff1673ffffffffffffffffffffffffffffffffffffffff16815260200190815260200160002060008282540192505081905550816002600083815260200190815260200160002060006101000a81548173ffffffffffffffffffffffffffffffffffffffff021916908373ffffffffffffffffffffffffffffffffffffffff160217905550808273ffffffffffffffffffffffffffffffffffffffff16600073ffffffffffffffffffffffffffffffffffffffff167fddf252ad1be2c89b69c2b068fc378daa952ba7f163c4a11628f55a4df523b3ef60405160405180910390a461224f600083836001611af9565b5050565b600181111561237357600073ffffffffffffffffffffffffffffffffffffffff168473ffffffffffffffffffffffffffffffffffffffff16146122e75780600360008673ffffffffffffffffffffffffffffffffffffffff1673ffffffffffffffffffffffffffffffffffffffff16815260200190815260200160002060008282546122df9190613e1b565b925050819055505b600073ffffffffffffffffffffffffffffffffffffffff168373ffffffffffffffffffffffffffffffffffffffff16146123725780600360008573ffffffffffffffffffffffffffffffffffffffff1673ffffffffffffffffffffffffffffffffffffffff168152602001908152602001600020600082825461236a9190613e4f565b925050819055505b5b50505050565b6008805490506009600083815260200190815260200160002081905550600881908060018154018082558091505060019003906000526020600020016000909190919091505550565b600060016123cf84610a93565b6123d99190613e1b565b90506000600760008481526020019081526020016000205490508181146124be576000600660008673ffffffffffffffffffffffffffffffffffffffff1673ffffffffffffffffffffffffffffffffffffffff168152602001908152602001600020600084815260200190815260200160002054905080600660008773ffffffffffffffffffffffffffffffffffffffff1673ffffffffffffffffffffffffffffffffffffffff168152602001908152602001600020600084815260200190815260200160002081905550816007600083815260200190815260200160002081905550505b6007600084815260200190815260200160002060009055600660008573ffffffffffffffffffffffffffffffffffffffff1673ffffffffffffffffffffffffffffffffffffffff16815260200190815260200160002060008381526020019081526020016000206000905550505050565b600060016008805490506125439190613e1b565b9050600060096000848152602001908152602001600020549050600060088381548110612573576125726134d3565b5b906000526020600020015490508060088381548110612595576125946134d3565b5b9060005260206000200181905550816009600083815260200190815260200160002081905550600960008581526020019081526020016000206000905560088054806125e4576125e3613ea5565b5b6001900381819060005260206000200160009055905550505050565b600061260b83610a93565b905081600660008573ffffffffffffffffffffffffffffffffffffffff1673ffffffffffffffffffffffffffffffffffffffff168152602001908152602001600020600083815260200190815260200160002081905550806007600084815260200190815260200160002081905550505050565b600080600090507a184f03e93ff9f4daa797ed6e38ed64bf6a1f01000000000000000083106126dd577a184f03e93ff9f4daa797ed6e38ed64bf6a1f01000000000000000083816126d3576126d2613d14565b5b0492506040810190505b6d04ee2d6d415b85acef8100000000831061271a576d04ee2d6d415b85acef810000000083816127105761270f613d14565b5b0492506020810190505b662386f26fc10000831061274957662386f26fc10000838161273f5761273e613d14565b5b0492506010810190505b6305f5e1008310612772576305f5e100838161276857612767613d14565b5b0492506008810190505b612710831061279757612710838161278d5761278c613d14565b5b0492506004810190505b606483106127ba57606483816127b0576127af613d14565b5b0492506002810190505b600a83106127c9576001810190505b80915050919050565b604051806060016040528060008152602001600073ffffffffffffffffffffffffffffffffffffffff168152602001606081525090565b828054612815906131c7565b90600052602060002090601f016020900481019282612837576000855561287e565b82601f1061285057805160ff191683800117855561287e565b8280016001018555821561287e579182015b8281111561287d578251825591602001919060010190612862565b5b50905061288b919061288f565b5090565b5b808211156128a8576000816000905550600101612890565b5090565b6000604051905090565b600080fd5b600080fd5b60007fffffffff0000000000000000000000000000000000000000000000000000000082169050919050565b6128f5816128c0565b811461290057600080fd5b50565b600081359050612912816128ec565b92915050565b60006020828403121561292e5761292d6128b6565b5b600061293c84828501612903565b91505092915050565b60008115159050919050565b61295a81612945565b82525050565b60006020820190506129756000830184612951565b92915050565b600081519050919050565b600082825260208201905092915050565b60005b838110156129b557808201518184015260208101905061299a565b838111156129c4576000848401525b50505050565b6000601f19601f8301169050919050565b60006129e68261297b565b6129f08185612986565b9350612a00818560208601612997565b612a09816129ca565b840191505092915050565b60006020820190508181036000830152612a2e81846129db565b905092915050565b6000819050919050565b612a4981612a36565b8114612a5457600080fd5b50565b600081359050612a6681612a40565b92915050565b600060208284031215612a8257612a816128b6565b5b6000612a9084828501612a57565b91505092915050565b600073ffffffffffffffffffffffffffffffffffffffff82169050919050565b6000612ac482612a99565b9050919050565b612ad481612ab9565b82525050565b6000602082019050612aef6000830184612acb565b92915050565b612afe81612ab9565b8114612b0957600080fd5b50565b600081359050612b1b81612af5565b92915050565b60008060408385031215612b3857612b376128b6565b5b6000612b4685828601612b0c565b9250506020612b5785828601612a57565b9150509250929050565b612b6a81612a36565b82525050565b6000602082019050612b856000830184612b61565b92915050565b600080600060608486031215612ba457612ba36128b6565b5b6000612bb286828701612b0c565b9350506020612bc386828701612b0c565b9250506040612bd486828701612a57565b9150509250925092565b600060ff82169050919050565b612bf481612bde565b82525050565b6000602082019050612c0f6000830184612beb565b92915050565b612c1e81612bde565b8114612c2957600080fd5b50565b600081359050612c3b81612c15565b92915050565b600060208284031215612c5757612c566128b6565b5b6000612c6584828501612c2c565b91505092915050565b600060208284031215612c8457612c836128b6565b5b6000612c9284828501612b0c565b91505092915050565b600081519050919050565b600082825260208201905092915050565b6000819050602082019050919050565b612cd081612a36565b82525050565b612cdf81612ab9565b82525050565b600082825260208201905092915050565b6000612d018261297b565b612d0b8185612ce5565b9350612d1b818560208601612997565b612d24816129ca565b840191505092915050565b6000606083016000830151612d476000860182612cc7565b506020830151612d5a6020860182612cd6565b5060408301518482036040860152612d728282612cf6565b9150508091505092915050565b6000612d8b8383612d2f565b905092915050565b6000602082019050919050565b6000612dab82612c9b565b612db58185612ca6565b935083602082028501612dc785612cb7565b8060005b85811015612e035784840389528151612de48582612d7f565b9450612def83612d93565b925060208a01995050600181019050612dcb565b50829750879550505050505092915050565b60006020820190508181036000830152612e2f8184612da0565b905092915050565b612e4081612945565b8114612e4b57600080fd5b50565b600081359050612e5d81612e37565b92915050565b60008060408385031215612e7a57612e796128b6565b5b6000612e8885828601612b0c565b9250506020612e9985828601612e4e565b9150509250929050565b600080fd5b600080fd5b7f4e487b7100000000000000000000000000000000000000000000000000000000600052604160045260246000fd5b612ee5826129ca565b810181811067ffffffffffffffff82111715612f0457612f03612ead565b5b80604052505050565b6000612f176128ac565b9050612f238282612edc565b919050565b600067ffffffffffffffff821115612f4357612f42612ead565b5b612f4c826129ca565b9050602081019050919050565b82818337600083830152505050565b6000612f7b612f7684612f28565b612f0d565b905082815260208101848484011115612f9757612f96612ea8565b5b612fa2848285612f59565b509392505050565b600082601f830112612fbf57612fbe612ea3565b5b8135612fcf848260208601612f68565b91505092915050565b60008060008060808587031215612ff257612ff16128b6565b5b600061300087828801612b0c565b945050602061301187828801612b0c565b935050604061302287828801612a57565b925050606085013567ffffffffffffffff811115613043576130426128bb565b5b61304f87828801612faa565b91505092959194509250565b600067ffffffffffffffff82111561307657613075612ead565b5b61307f826129ca565b9050602081019050919050565b600061309f61309a8461305b565b612f0d565b9050828152602081018484840111156130bb576130ba612ea8565b5b6130c6848285612f59565b509392505050565b600082601f8301126130e3576130e2612ea3565b5b81356130f384826020860161308c565b91505092915050565b60008060408385031215613113576131126128b6565b5b600061312185828601612b0c565b925050602083013567ffffffffffffffff811115613142576131416128bb565b5b61314e858286016130ce565b9150509250929050565b6000806040838503121561316f5761316e6128b6565b5b600061317d85828601612b0c565b925050602061318e85828601612b0c565b9150509250929050565b7f4e487b7100000000000000000000000000000000000000000000000000000000600052602260045260246000fd5b600060028204905060018216806131df57607f821691505b602082108114156131f3576131f2613198565b5b50919050565b7f4552433732313a20617070726f76616c20746f2063757272656e74206f776e6560008201527f7200000000000000000000000000000000000000000000000000000000000000602082015250565b6000613255602183612986565b9150613260826131f9565b604082019050919050565b6000602082019050818103600083015261328481613248565b9050919050565b7f4552433732313a20617070726f76652063616c6c6572206973206e6f7420746f60008201527f6b656e206f776e6572206f7220617070726f76656420666f7220616c6c000000602082015250565b60006132e7603d83612986565b91506132f28261328b565b604082019050919050565b60006020820190508181036000830152613316816132da565b9050919050565b7f4552433732313a2063616c6c6572206973206e6f7420746f6b656e206f776e6560008201527f72206f7220617070726f76656400000000000000000000000000000000000000602082015250565b6000613379602d83612986565b91506133848261331d565b604082019050919050565b600060208201905081810360008301526133a88161336c565b9050919050565b7f455243373231456e756d657261626c653a206f776e657220696e646578206f7560008201527f74206f6620626f756e6473000000000000000000000000000000000000000000602082015250565b600061340b602b83612986565b9150613416826133af565b604082019050919050565b6000602082019050818103600083015261343a816133fe565b9050919050565b7f455243373231456e756d657261626c653a20676c6f62616c20696e646578206f60008201527f7574206f6620626f756e64730000000000000000000000000000000000000000602082015250565b600061349d602c83612986565b91506134a882613441565b604082019050919050565b600060208201905081810360008301526134cc81613490565b9050919050565b7f4e487b7100000000000000000000000000000000000000000000000000000000600052603260045260246000fd5b7f4552433732313a20696e76616c696420746f6b656e2049440000000000000000600082015250565b6000613538601883612986565b915061354382613502565b602082019050919050565b600060208201905081810360008301526135678161352b565b9050919050565b7f4e487b7100000000000000000000000000000000000000000000000000000000600052601160045260246000fd5b60006135a882612bde565b91506135b383612bde565b92508260ff038211156135c9576135c861356e565b5b828201905092915050565b7f4552433732313a2061646472657373207a65726f206973206e6f74206120766160008201527f6c6964206f776e65720000000000000000000000000000000000000000000000602082015250565b6000613630602983612986565b915061363b826135d4565b604082019050919050565b6000602082019050818103600083015261365f81613623565b9050919050565b600061367182612a36565b91507fffffffffffffffffffffffffffffffffffffffffffffffffffffffffffffffff8214156136a4576136a361356e565b5b600182019050919050565b7f4d6178696d756d20537570706c79204c696d6974205265616368656400000000600082015250565b60006136e5601c83612986565b91506136f0826136af565b602082019050919050565b60006020820190508181036000830152613714816136d8565b9050919050565b60006060830160008301516137336000860182612cc7565b5060208301516137466020860182612cd6565b506040830151848203604086015261375e8282612cf6565b9150508091505092915050565b60006020820190508181036000830152613785818461371b565b905092915050565b7f4f776e61626c653a206e6577206f776e657220697320746865207a65726f206160008201527f6464726573730000000000000000000000000000000000000000000000000000602082015250565b60006137e9602683612986565b91506137f48261378d565b604082019050919050565b60006020820190508181036000830152613818816137dc565b9050919050565b7f4552433732313a207472616e736665722066726f6d20696e636f72726563742060008201527f6f776e6572000000000000000000000000000000000000000000000000000000602082015250565b600061387b602583612986565b91506138868261381f565b604082019050919050565b600060208201905081810360008301526138aa8161386e565b9050919050565b7f4552433732313a207472616e7366657220746f20746865207a65726f2061646460008201527f7265737300000000000000000000000000000000000000000000000000000000602082015250565b600061390d602483612986565b9150613918826138b1565b604082019050919050565b6000602082019050818103600083015261393c81613900565b9050919050565b7f4f776e61626c653a2063616c6c6572206973206e6f7420746865206f776e6572600082015250565b6000613979602083612986565b915061398482613943565b602082019050919050565b600060208201905081810360008301526139a88161396c565b9050919050565b7f4552433732313a20617070726f766520746f2063616c6c657200000000000000600082015250565b60006139e5601983612986565b91506139f0826139af565b602082019050919050565b60006020820190508181036000830152613a14816139d8565b9050919050565b7f4552433732313a207472616e7366657220746f206e6f6e20455243373231526560008201527f63656976657220696d706c656d656e7465720000000000000000000000000000602082015250565b6000613a77603283612986565b9150613a8282613a1b565b604082019050919050565b60006020820190508181036000830152613aa681613a6a565b9050919050565b600081905092915050565b6000613ac38261297b565b613acd8185613aad565b9350613add818560208601612997565b80840191505092915050565b6000613af58285613ab8565b9150613b018284613ab8565b91508190509392505050565b7f45524337323155524953746f726167653a2055524920736574206f66206e6f6e60008201527f6578697374656e7420746f6b656e000000000000000000000000000000000000602082015250565b6000613b69602e83612986565b9150613b7482613b0d565b604082019050919050565b60006020820190508181036000830152613b9881613b5c565b9050919050565b600081519050919050565b600082825260208201905092915050565b6000613bc682613b9f565b613bd08185613baa565b9350613be0818560208601612997565b613be9816129ca565b840191505092915050565b6000608082019050613c096000830187612acb565b613c166020830186612acb565b613c236040830185612b61565b8181036060830152613c358184613bbb565b905095945050505050565b600081519050613c4f816128ec565b92915050565b600060208284031215613c6b57613c6a6128b6565b5b6000613c7984828501613c40565b91505092915050565b7f455243373231456e756d657261626c653a20636f6e736563757469766520747260008201527f616e7366657273206e6f7420737570706f727465640000000000000000000000602082015250565b6000613cde603583612986565b9150613ce982613c82565b604082019050919050565b60006020820190508181036000830152613d0d81613cd1565b9050919050565b7f4e487b7100000000000000000000000000000000000000000000000000000000600052601260045260246000fd5b7f4552433732313a206d696e7420746f20746865207a65726f2061646472657373600082015250565b6000613d79602083612986565b9150613d8482613d43565b602082019050919050565b60006020820190508181036000830152613da881613d6c565b9050919050565b7f4552433732313a20746f6b656e20616c7265616479206d696e74656400000000600082015250565b6000613de5601c83612986565b9150613df082613daf565b602082019050919050565b60006020820190508181036000830152613e1481613dd8565b9050919050565b6000613e2682612a36565b9150613e3183612a36565b925082821015613e4457613e4361356e565b5b828203905092915050565b6000613e5a82612a36565b9150613e6583612a36565b9250827fffffffffffffffffffffffffffffffffffffffffffffffffffffffffffffffff03821115613e9a57613e9961356e565b5b828201905092915050565b7f4e487b7100000000000000000000000000000000000000000000000000000000600052603160045260246000fdfea2646970667358221220a41b406ba0d8d891dbdccede88e757464a93d4b9c89dc5d6757a00e6bfba8fe964736f6c63430008090033",
  "linkReferences": {},
  "deployedLinkReferences": {}
}